{
  "status" : "success",
  "data" : {
    "network" : "BTCTEST",
    "txid" : "b660ee07167cfa32681e2623f3a29dc64a089cabd9a3a07dd17f9028ac956eb8",
    "blockhash" : "00000000c096a3b9fff7bfe167f3a2e2a4db41a8993d908e28c26288e3f64429",
    "confirmations" : 69715,
    "time" : 1603954552,
    "inputs" : [
      {
        "input_no" : 0,
        "value" : "0.08898697",
        "address" : "2N4nhhJpjauDekVUVgA1T51M5gVg4vzLzNC",
        "type" : "scripthash",
        "script" : "001476fb4ad4c94bc217dc39d2bbd315412f1a4b098a",
        "witness" : [
          "304402203df07aa9b9cd423ee04e99d6c92587056841a4d99a92171497ddb80154aae8a302201f67daa79aacb95eafb6b886967e4529feae25b3eb0b9cb268f76c396e535a5a01",
          "02f0937b6d2ec8f76768906695f6605d9d590139bfcf9eb900f3583cd6aad991b4"
        ],
        "from_output" : {
          "txid" : "f897258c2f866a2a14af4d0be356e7747b4ef1b15a52d219e09e4476d2ee8542",
          "output_no" : 1
        }
      }
    ],
    "outputs" : [
      {
        "output_no" : 0,
        "value" : "0.00100000",
        "address" : "tb1q3a00snh7erczk94k48fe9q5z0fldgnh4twsh29",
        "type" : "witness_v0_keyhash",
        "script" : "0 8f5ef84efec8f02b16b6a9d39282827a7ed44ef5"
      },
      {
        "output_no" : 1,
        "value" : "0.08798533",
        "address" : "tb1qxx4azx0lw4tc6ylurc55ak5hl7u2ws0w9kw9h3",
        "type" : "witness_v0_keyhash",
        "script" : "0 31abd119ff75578d13fc1e294eda97ffb8a741ee"
      }
    ],
    "tx_hex" : "020000000001014285eed276449ee019d2525ab1f14e7b74e756e30b4daf142a6a862f8c2597f8010000001716001476fb4ad4c94bc217dc39d2bbd315412f1a4b098afeffffff02a0860100000000001600148f5ef84efec8f02b16b6a9d39282827a7ed44ef5454186000000000016001431abd119ff75578d13fc1e294eda97ffb8a741ee0247304402203df07aa9b9cd423ee04e99d6c92587056841a4d99a92171497ddb80154aae8a302201f67daa79aacb95eafb6b886967e4529feae25b3eb0b9cb268f76c396e535a5a012102f0937b6d2ec8f76768906695f6605d9d590139bfcf9eb900f3583cd6aad991b4cc761c00",
    "size" : 245,
    "version" : 2,
    "locktime" : 1865420
  }
}