{
  "status": "success",
  "data": {
    "network": "DOGETEST",
    "txid": "434776e08880a9c3dfb6c90b23d50b93062bfb632e519d901e1397ac9800a7b3",
    "blockhash": "50ccaaa15e833e2620c0350e60bed0e7ceb038121384af93715b5cdfebb042a3",
    "block_no": 3516852,
    "confirmations": 491,
    "time": 1640133333,
    "size": 226,
    "vsize": 226,
    "version": 1,
    "locktime": 0,
    "sent_value": "29.39730667",
    "fee": "1.00000000",
    "inputs": [
      {
        "input_no": 0,
        "address": "ns374psQkXiLapSySHwaw248q1mnePc1i3",
        "value": "29.39730667",
        "received_from": {
          "txid": "86115e09690f57e7c8d77eef0f350c30ac73b0c71987faef7b9a5d58f67d2880",
          "output_no": 0
        },
        "script_asm": "3045022100d6b046f6833edc171ca53e3e0311034011257aa9c974781525a9d2dcbea9468502206953215e134c436d48c0c07c57b5fbadfa289699af9426097f27dad31353576c01 0263201dccf12a1fca189641b5c6cb6f4723420f6de90c9c19758b82d38f6e224b",
        "script_hex": "483045022100d6b046f6833edc171ca53e3e0311034011257aa9c974781525a9d2dcbea9468502206953215e134c436d48c0c07c57b5fbadfa289699af9426097f27dad31353576c01210263201dccf12a1fca189641b5c6cb6f4723420f6de90c9c19758b82d38f6e224b",
        "witness": null
      }
    ],
    "outputs": [
      {
        "output_no": 0,
        "address": "na58Cr7MVPhnNXa2zXqrumNaTLz5p5aecS",
        "value": "5.00000000",
        "type": "pubkeyhash",
        "req_sigs": 1,
        "spent": {
          "txid": "ff0323c5574ba0b90c543dc1aa3153c07ee4be74400c50870b8086499c76fed9",
          "input_no": 0
        },
        "script_asm": "OP_DUP OP_HASH160 407c1fca3b57148b1b2ff3e8d6548d631f1f1a58 OP_EQUALVERIFY OP_CHECKSIG",
        "script_hex": "76a914407c1fca3b57148b1b2ff3e8d6548d631f1f1a5888ac"
      },
      {
        "output_no": 1,
        "address": "nVhTSAcDWg5PihJA7FCx6G6jLexRz7qhsB",
        "value": "23.39730667",
        "type": "pubkeyhash",
        "req_sigs": 1,
        "spent": {
          "txid": "4fce59ffd0c5318b0f387afa2f1b7a94ede142f722f714891dd31563f3dbda34",
          "input_no": 0
        },
        "script_asm": "OP_DUP OP_HASH160 108285a04f166f48760cabfafd5a9cc87d1d9332 OP_EQUALVERIFY OP_CHECKSIG",
        "script_hex": "76a914108285a04f166f48760cabfafd5a9cc87d1d933288ac"
      }
    ],
    "tx_hex": "010000000180287df6585d9a7beffa8719c7b073ac300c350fef7ed7c8e7570f69095e1186000000006b483045022100d6b046f6833edc171ca53e3e0311034011257aa9c974781525a9d2dcbea9468502206953215e134c436d48c0c07c57b5fbadfa289699af9426097f27dad31353576c01210263201dccf12a1fca189641b5c6cb6f4723420f6de90c9c19758b82d38f6e224bffffffff020065cd1d000000001976a914407c1fca3b57148b1b2ff3e8d6548d631f1f1a5888aceb74758b000000001976a914108285a04f166f48760cabfafd5a9cc87d1d933288ac00000000"
  },
  "code": 200,
  "message": ""
}
