{
  "status": "success",
  "data": {
    "network": "DOGETEST",
    "txid": "4fce59ffd0c5318b0f387afa2f1b7a94ede142f722f714891dd31563f3dbda34",
    "blockhash": "4925b4e1311e156bb08a4f75d191b19364666c5112559f48d6dc2952a027556d",
    "block_no": 3516856,
    "confirmations": 487,
    "time": 1640133553,
    "size": 225,
    "vsize": 225,
    "version": 1,
    "locktime": 0,
    "sent_value": "23.39730667",
    "fee": "1.00000000",
    "inputs": [
      {
        "input_no": 0,
        "address": "nVhTSAcDWg5PihJA7FCx6G6jLexRz7qhsB",
        "value": "23.39730667",
        "received_from": {
          "txid": "434776e08880a9c3dfb6c90b23d50b93062bfb632e519d901e1397ac9800a7b3",
          "output_no": 1
        },
        "script_asm": "304402203fbdf151a178029b9640038019a989b38f242298fa34ffe67d712eedf16d8bef02203c50c1d89b459e341a7736f8ca725076688c2d0f668c6b35e1029e4263eacc8201 035f412a221cd9fca3dd33e7cb776ffc604a59aae104720001f6def586ee27b0d1",
        "script_hex": "47304402203fbdf151a178029b9640038019a989b38f242298fa34ffe67d712eedf16d8bef02203c50c1d89b459e341a7736f8ca725076688c2d0f668c6b35e1029e4263eacc820121035f412a221cd9fca3dd33e7cb776ffc604a59aae104720001f6def586ee27b0d1",
        "witness": null
      }
    ],
    "outputs": [
      {
        "output_no": 0,
        "address": "nm9mfEe7Cow9KDbRYmfzT3kiFRbBL7fapm",
        "value": "5.00000000",
        "type": "pubkeyhash",
        "req_sigs": 1,
        "spent": null,
        "script_asm": "OP_DUP OP_HASH160 ba066fff0c142c75b3b7e9a5a76f85168fa5a91d OP_EQUALVERIFY OP_CHECKSIG",
        "script_hex": "76a914ba066fff0c142c75b3b7e9a5a76f85168fa5a91d88ac"
      },
      {
        "output_no": 1,
        "address": "nkJ3JHmpuWqu3eHyXByh67YmwDGep9bD3N",
        "value": "17.39730667",
        "type": "pubkeyhash",
        "req_sigs": 1,
        "spent": null,
        "script_asm": "OP_DUP OP_HASH160 b09eb1adf98992d57532cabaa30bd731716b1aeb OP_EQUALVERIFY OP_CHECKSIG",
        "script_hex": "76a914b09eb1adf98992d57532cabaa30bd731716b1aeb88ac"
      }
    ],
    "tx_hex": "0100000001b3a70098ac97131e909d512e63fb2b06930bd5230bc9b6dfc3a98088e0764743010000006a47304402203fbdf151a178029b9640038019a989b38f242298fa34ffe67d712eedf16d8bef02203c50c1d89b459e341a7736f8ca725076688c2d0f668c6b35e1029e4263eacc820121035f412a221cd9fca3dd33e7cb776ffc604a59aae104720001f6def586ee27b0d1ffffffff020065cd1d000000001976a914ba066fff0c142c75b3b7e9a5a76f85168fa5a91d88aceb2eb267000000001976a914b09eb1adf98992d57532cabaa30bd731716b1aeb88ac00000000"
  },
  "code": 200,
  "message": ""
}
