{
  "status": "success",
  "data": {
    "network": "DOGETEST",
    "txid": "69756fa084188cd0adfe49e0a0da8354ace82c0edd42d0a2cc7fe3c77b310429",
    "blockhash": "123de8798b2fbae10061d45e592d572916d0d34c4946e4e59aee5c135326bb88",
    "block_no": 3518060,
    "confirmations": 296,
    "time": 1640194997,
    "size": 226,
    "vsize": 226,
    "version": 1,
    "locktime": 3518059,
    "sent_value": "607.00000000",
    "fee": "1.00000000",
    "inputs": [
      {
        "input_no": 0,
        "address": "nk9qZgLdFjqosBKVu2N9FfBkNX7NzXXnhq",
        "value": "607.00000000",
        "received_from": {
          "txid": "e28998ab2fd1ee9ffc295ac04488b1048b024e2dab062a7248f3a2d2b868f4b2",
          "output_no": 0
        },
        "script_asm": "3045022100e8d58765ef0f771003f81e55c23d3c39e44e7b58137727f15165159b1e480132022008267f76342686a8b48744ca0602c98d1403c5a8ecf448c79c65a0828e07837301 0333e1a715cb1509ee2835b92d74a0810f4e1c20ae7069f62de098a1ba7d65886c",
        "script_hex": "483045022100e8d58765ef0f771003f81e55c23d3c39e44e7b58137727f15165159b1e480132022008267f76342686a8b48744ca0602c98d1403c5a8ecf448c79c65a0828e07837301210333e1a715cb1509ee2835b92d74a0810f4e1c20ae7069f62de098a1ba7d65886c",
        "witness": null
      }
    ],
    "outputs": [
      {
        "output_no": 0,
        "address": "nbEUySRzwEjcGvh3pDf6Vx7iaVLFXmrmcD",
        "value": "506.00000000",
        "type": "pubkeyhash",
        "req_sigs": 1,
        "spent": {
          "txid": "2b9611aca222e3f2b266857846f2e63f49a78b83a1a6c2429fe8fd59afd29b2e",
          "input_no": 0
        },
        "script_asm": "OP_DUP OP_HASH160 4d39549f94f4c5b5e50c377943864c996a5c1cdf OP_EQUALVERIFY OP_CHECKSIG",
        "script_hex": "76a9144d39549f94f4c5b5e50c377943864c996a5c1cdf88ac"
      },
      {
        "output_no": 1,
        "address": "nfVtm2hbz4rv1fhBVTqi5hGWrRzy5rqmLv",
        "value": "100.00000000",
        "type": "pubkeyhash",
        "req_sigs": 1,
        "spent": null,
        "script_asm": "OP_DUP OP_HASH160 7c03edc051c130839f383d604f30df48efd94cbb OP_EQUALVERIFY OP_CHECKSIG",
        "script_hex": "76a9147c03edc051c130839f383d604f30df48efd94cbb88ac"
      }
    ],
    "tx_hex": "0100000001b2f468b8d2a2f348722a06ab2d4e028b04b18844c05a29fc9feed12fab9889e2000000006b483045022100e8d58765ef0f771003f81e55c23d3c39e44e7b58137727f15165159b1e480132022008267f76342686a8b48744ca0602c98d1403c5a8ecf448c79c65a0828e07837301210333e1a715cb1509ee2835b92d74a0810f4e1c20ae7069f62de098a1ba7d65886cfeffffff0200bafec70b0000001976a9144d39549f94f4c5b5e50c377943864c996a5c1cdf88ac00e40b54020000001976a9147c03edc051c130839f383d604f30df48efd94cbb88ac6bae3500"
  },
  "code": 200,
  "message": ""
}
