{
    "status" : "success",
    "data" : {
      "network" : "BTCTEST",
      "txid" : "6e7071a09e82d72c6c84d253047c38dbd7fea531b93155adfe10acfba41bca63",
      "blockhash" : "00000000aa4f0d731870acd255548212e89a85203b0b4d139dd6c34dae1ef70e",
      "confirmations" : 37700,
      "time" : 1607859595,
      "inputs" : [
        {
          "input_no" : 0,
          "value" : "0.00019800",
          "address" : "tb1q2pkall6rf6v6j0cvpady05xhy37erndvku08wp",
          "type" : "witness_v0_keyhash",
          "script" : "",
          "witness" : [
            "3045022100ed27c61eb1aa41d708dbb3f3c2520a56cef818ccd6c22064cbbb56d623064ace02206c438c5222e6be9846d28ea3ae4dadd2d036c335faf2b8d520027bd3418b31e601",
            "034817f9a4e3cca3bcfa454a80fb1270543f0a170d0ab089bc9040d0431f858cde"
          ],
          "from_output" : {
            "txid" : "74eb646e971e5e44e3808e10fe85ec5ab8efec600e9c322b3a472e56ca8a8014",
            "output_no" : 1
          }
        }
      ],
      "outputs" : [
        {
          "output_no" : 0,
          "value" : "0.00002223",
          "address" : "tb1q04y2lnt0ausy07vq9dg5w2rnn9yjl3rzgjhra4",
          "type" : "witness_v0_keyhash",
          "script" : "0 7d48afcd6fef2047f9802b5147287399492fc462"
        },
        {
          "output_no" : 1,
          "value" : "0.00017435",
          "address" : "tb1q2pkall6rf6v6j0cvpady05xhy37erndvku08wp",
          "type" : "witness_v0_keyhash",
          "script" : "0 506ddfff434e99a93f0c0f5a47d0d7247d91cdac"
        }
      ],
      "tx_hex" : "0100000000010114808aca562e473a2b329c0e60ecefb85aec85fe108e80e3445e1e976e64eb740100000000ffffffff02af080000000000001600147d48afcd6fef2047f9802b5147287399492fc4621b44000000000000160014506ddfff434e99a93f0c0f5a47d0d7247d91cdac02483045022100ed27c61eb1aa41d708dbb3f3c2520a56cef818ccd6c22064cbbb56d623064ace02206c438c5222e6be9846d28ea3ae4dadd2d036c335faf2b8d520027bd3418b31e60121034817f9a4e3cca3bcfa454a80fb1270543f0a170d0ab089bc9040d0431f858cde00000000",
      "size" : 223,
      "version" : 1,
      "locktime" : 0
    }
  }