{
  "status": "success",
  "data": {
    "network": "DOGETEST",
    "txid": "ff0323c5574ba0b90c543dc1aa3153c07ee4be74400c50870b8086499c76fed9",
    "blockhash": "442daa3f1162ae096024695c5b774f787f51953c2b17eb82c1d6c9f4e05b77ec",
    "block_no": 3516868,
    "confirmations": 5,
    "time": 1640134705,
    "size": 225,
    "vsize": 225,
    "version": 1,
    "locktime": 0,
    "sent_value": "5.00000000",
    "fee": "0.22600000",
    "inputs": [
      {
        "input_no": 0,
        "address": "na58Cr7MVPhnNXa2zXqrumNaTLz5p5aecS",
        "value": "5.00000000",
        "received_from": {
          "txid": "434776e08880a9c3dfb6c90b23d50b93062bfb632e519d901e1397ac9800a7b3",
          "output_no": 0
        },
        "script_asm": "3044022005ae9a242b3cd3cfb6dd9629363ae3ba4865512ff9d3c93fbd5d0d9720e7e5a002201fa1d8e02a6c1d8c29f85603d74060cffa050b05fb7091b5a79338a33353f78401 023bd63e307b72f9247541923a3b6a05bbe01694327766c150c55201cec15d4ccc",
        "script_hex": "473044022005ae9a242b3cd3cfb6dd9629363ae3ba4865512ff9d3c93fbd5d0d9720e7e5a002201fa1d8e02a6c1d8c29f85603d74060cffa050b05fb7091b5a79338a33353f7840121023bd63e307b72f9247541923a3b6a05bbe01694327766c150c55201cec15d4ccc",
        "witness": null
      }
    ],
    "outputs": [
      {
        "output_no": 0,
        "address": "nddntqAURpDYBdre42BDk1dg3vVfE6WapA",
        "value": "1.00000000",
        "type": "pubkeyhash",
        "req_sigs": 1,
        "spent": null,
        "script_asm": "OP_DUP OP_HASH160 67921bcb4ffd57fa1deb4cee3784d7bcca299709 OP_EQUALVERIFY OP_CHECKSIG",
        "script_hex": "76a91467921bcb4ffd57fa1deb4cee3784d7bcca29970988ac"
      },
      {
        "output_no": 1,
        "address": "nbo3KyDVfdj4mcV1oCZTBwWyoRyFMf2Ah4",
        "value": "3.77400000",
        "type": "pubkeyhash",
        "req_sigs": 1,
        "spent": null,
        "script_asm": "OP_DUP OP_HASH160 5361a62a041f84b993426bc37d7e4f2b331751ac OP_EQUALVERIFY OP_CHECKSIG",
        "script_hex": "76a9145361a62a041f84b993426bc37d7e4f2b331751ac88ac"
      }
    ],
    "tx_hex": "0100000001b3a70098ac97131e909d512e63fb2b06930bd5230bc9b6dfc3a98088e0764743000000006a473044022005ae9a242b3cd3cfb6dd9629363ae3ba4865512ff9d3c93fbd5d0d9720e7e5a002201fa1d8e02a6c1d8c29f85603d74060cffa050b05fb7091b5a79338a33353f7840121023bd63e307b72f9247541923a3b6a05bbe01694327766c150c55201cec15d4cccffffffff0200e1f505000000001976a91467921bcb4ffd57fa1deb4cee3784d7bcca29970988acc0aa7e16000000001976a9145361a62a041f84b993426bc37d7e4f2b331751ac88ac00000000"
  },
  "code": 200,
  "message": ""
}
