{
  "raw_transaction": "0100000000010139d3e3e0cfeb8ca7ee2acde3da7b9c55b69b98d1ecefc462fc42a9a0e01791590100000000ffffffff02e80300000000000016001411c0afb93b09754c404d6d07d0177e47e50a7af68a85000000000000160014c4ff9b64146aa85c68d159b33fac787d2ca739ce0247304402200d05ce625798f0b5406c34d02bf3bd6c4a687e56bf53d045362540596f50d9990220540aaf887d8ccd7e81644e013465a5f047dec387b69892df6de48d720e574615012103086efaa7f1c864fb6a88581dcc641b61694e16ce668a46807a2fe8d5d40aed0700000000",
  "decoded_raw_transaction": {
    "txid": "175af6b3e60550f86c794cb6f90262662b29ba75c0538c1110a3e5848a796102",
    "hash": "ad9eb34141ab51d5deb3db7b7a858d71f56c63f846663777be1332bab057d344",
    "version": 1,
    "size": 222,
    "vsize": 141,
    "weight": 561,
    "locktime": 0,
    "vin": [
      {
        "txid": "599117e0a0a942fc62c4efecd1989bb6559c7bdae3cd2aeea78cebcfe0e3d339",
        "vout": 1,
        "scriptSig": { "asm": "", "hex": "" },
        "txinwitness": [
          "304402200d05ce625798f0b5406c34d02bf3bd6c4a687e56bf53d045362540596f50d9990220540aaf887d8ccd7e81644e013465a5f047dec387b69892df6de48d720e57461501",
          "03086efaa7f1c864fb6a88581dcc641b61694e16ce668a46807a2fe8d5d40aed07"
        ],
        "sequence": 4294967295
      }
    ],
    "vout": [
      {
        "value": 1.0e-5,
        "n": 0,
        "scriptPubKey": {
          "asm": "0 11c0afb93b09754c404d6d07d0177e47e50a7af6",
          "hex": "001411c0afb93b09754c404d6d07d0177e47e50a7af6",
          "reqSigs": 1,
          "type": "witness_v0_keyhash",
          "addresses": ["tb1qz8q2lwfmp965cszdd5raq9m7gljs57hkzpw56d"]
        }
      },
      {
        "value": 0.00034186,
        "n": 1,
        "scriptPubKey": {
          "asm": "0 c4ff9b64146aa85c68d159b33fac787d2ca739ce",
          "hex": "0014c4ff9b64146aa85c68d159b33fac787d2ca739ce",
          "reqSigs": 1,
          "type": "witness_v0_keyhash",
          "addresses": ["tb1qcnlekeq5d259c6x3txenltrc05k2wwwwyfxphe"]
        }
      }
    ]
  }
}
