{
  "raw_transaction": "02000000000101f4b48e54b3143677e7925644f891acf3b7b8216a2dbfb5aa30460eb7502ef1800100000000feffffff02f82a000000000000160014506ddfff434e99a93f0c0f5a47d0d7247d91cdac4b79220b00000000160014184015af8cbf564b0b8d63be4743e2b8eba04a0f02473044022056216831af96cf22c82cdac32abca809e8497854ad30d0e12e55e63762b8b8960220628140ab36fd5358f9d7adc1c65cc38d66ac9297dd820d68bccf01acc576b54a0121038ff2719144745dac547f3d96bfe637bbce8fed0994a4e568e1cc9c095fdd2d8020db1c00",
  "decoded_raw_transaction": {
    "txid": "2582704ab0dc5b555c1fbd04f75cc06ea88d5c1c613416e18c6bdb5b195d84a5",
    "hash": "048243a556b61ff77f4c62dbc5d8b8f68030b44f71c2f91e7a90b673d096762e",
    "version": 2,
    "size": 222,
    "vsize": 141,
    "weight": 561,
    "locktime": 1891104,
    "vin": [
      {
        "txid": "80f12e50b70e4630aab5bf2d6a21b8b7f3ac91f8445692e7773614b3548eb4f4",
        "vout": 1,
        "scriptSig": { "asm": "", "hex": "" },
        "txinwitness": [
          "3044022056216831af96cf22c82cdac32abca809e8497854ad30d0e12e55e63762b8b8960220628140ab36fd5358f9d7adc1c65cc38d66ac9297dd820d68bccf01acc576b54a01",
          "038ff2719144745dac547f3d96bfe637bbce8fed0994a4e568e1cc9c095fdd2d80"
        ],
        "sequence": 4294967294
      }
    ],
    "vout": [
      {
        "value": 0.00011,
        "n": 0,
        "scriptPubKey": {
          "asm": "0 506ddfff434e99a93f0c0f5a47d0d7247d91cdac",
          "hex": "0014506ddfff434e99a93f0c0f5a47d0d7247d91cdac",
          "reqSigs": 1,
          "type": "witness_v0_keyhash",
          "addresses": ["tb1q2pkall6rf6v6j0cvpady05xhy37erndvku08wp"]
        }
      },
      {
        "value": 1.86808651,
        "n": 1,
        "scriptPubKey": {
          "asm": "0 184015af8cbf564b0b8d63be4743e2b8eba04a0f",
          "hex": "0014184015af8cbf564b0b8d63be4743e2b8eba04a0f",
          "reqSigs": 1,
          "type": "witness_v0_keyhash",
          "addresses": ["tb1qrpqpttuvhatykzudvwlywslzhr46qjs08xj7a7"]
        }
      }
    ]
  }
}
