{
  "raw_transaction": "0200000000010f30f5e1eae8fe82e1fd102e95ad81ff597463d4df802cf2168cdc9ecb2481d5560000000000ffffffff6c9b2ab6f477d6776926cd667b722b78d5992a8d518d838553b8fa30639e28260000000000ffffffffc66c95d2eac466331766a1d318eb222d2275e4c64d6f092281d45811662b8cbc0000000000ffffffffd25810848ee77aa10ada860f70808dd4b6736b7497cc358da3342a364eb1f2d70000000000ffffffff20e38ba709766e10a83fdc971862707b3d42ae77593b33f6c786b04efaa80b830000000000ffffffff1d03294989f1d531aefe318bcd957703ac3aa87d5384939ad3cc7aa7855bc76a0000000000ffffffff9abf8fd2303fa4f2750c4a4772a30c2ff852ef6b83ea68443a518dd9240ee2830000000000ffffffff1a4915f3ac0e1e665601a17f4018df95fcf956d9dacb5a85c561feeec5a13c510000000000ffffffff9b07e43b169f1af9f8633c38e8c235f67bf4aaaf6ffc9a54a09fcb9ccd5c90b10000000000ffffffff25cf61632657225bc1f1c8d4d34b09ffa7b106870916512a9c79d0e07ead37c00000000000ffffffff1b61085edcdb712fe742ca459104d543fcbfe10258f92a4fb2dd4c329c2326990000000000ffffffff50fcb317b553595cb1b7f6081e957ed8068ba02f8768d3408592e14271cb0f370000000000ffffffffce79d2c8eae3a814924c89d00a2fd0e22effeadf438ea108fe12464dc8a5010b0000000000ffffffff16ef35fad9368f8d1bb2edd6eb385f25ab2e109a0101cf45cd280c14bc9f892b0000000000ffffffff32156d1ef5a7f8e4e044507471edac27e389c72ebae81ff00e5bfc5be3b6ba810000000000ffffffff03af08000000000000160014c4ff9b64146aa85c68d159b33fac787d2ca739ce6b7500000000000016001411c0afb93b09754c404d6d07d0177e47e50a7af60000000000000000106a0e535741503a54484f522e52554e450247304402203bcba4c95d943534d1dcf207bf2144149412e94c7e82880a9983b2c78eea551e02202f4fba97f8141f9ef5bef56caf39933b2c1ff3e04c50024a07cb320f8616595101210229b42fa7f046c3f453ef30d49573a076ad357b3c72ec9b3139705bb7e54daa3602483045022100d2af75e43e5e1a87bc8c70e8084e0da57be47aa7a1777eb9a098dd65ee5bf2a00220181e162982628bd8fe401ed6eff47c96ba71987896b4f9e60c616b40e7d8267c01210229b42fa7f046c3f453ef30d49573a076ad357b3c72ec9b3139705bb7e54daa3602473044022022ce762be7e8125be12bbd5b3f636d528deecae8f8fbde0fe0ca2c03d150ce39022076aec0d4c263a1ebe0438e4ff6e8faffb5fcd73546443f180334c485da04722f01210229b42fa7f046c3f453ef30d49573a076ad357b3c72ec9b3139705bb7e54daa360247304402201cd2bf3c1c7bb26e8a50b9d317ab47f169d978bbf4fc52161a6917ad2455bbe2022039664444aa732054a604a79dc9bf2915528d6eb84814f7a93dd1396d85cbadf601210229b42fa7f046c3f453ef30d49573a076ad357b3c72ec9b3139705bb7e54daa36024730440220110c10277edb46954831c66bb347a2bf2684666fc430a1621557f4a806b6d7a502207673b20c08ae0c80be6f61e10ee073f37fcb8531cc46896c8ce78ef06f0c05a601210229b42fa7f046c3f453ef30d49573a076ad357b3c72ec9b3139705bb7e54daa3602483045022100cdfeeab48db8c27e915643c4279e6905932ad7eab0e233ab0513bee2da192cff02206b938d7b278f1c6f9037885de9f3e81755c920bf259e0d8bc020ef757145247301210229b42fa7f046c3f453ef30d49573a076ad357b3c72ec9b3139705bb7e54daa36024730440220647c19774efe6a8214d8480118ca56d0d75fd7f0c0796d9d8941a9953a8f9de7022053b467d66ef3350af95947e795267780cc8253c00e6768824fc5106f4ad5728101210229b42fa7f046c3f453ef30d49573a076ad357b3c72ec9b3139705bb7e54daa3602483045022100a72c9c6f4a76002d059794d484fd2e6c2cb78b97411f64226a28b14560108d70022029fff0011a2b752bff5fd0277fc3ec01a0b504e9004a33682a7d9e933c25308201210229b42fa7f046c3f453ef30d49573a076ad357b3c72ec9b3139705bb7e54daa3602483045022100f4346cb3bb5f405531a2dd84d4a4407b409bdc122718e64bf6ddd38f459401a6022033085b88be6cd166c9500d77bda156e38626121f7c9831ae13a0380f1150284701210229b42fa7f046c3f453ef30d49573a076ad357b3c72ec9b3139705bb7e54daa360247304402204ef1aa2ceb03d35351d65bbc313c9a19717a57b213dc7da73dcccebfc7d158580220104bde5f43d28dc844325f1a4cf8c50fc07cea112a04cc0609f7e350d2036b7301210229b42fa7f046c3f453ef30d49573a076ad357b3c72ec9b3139705bb7e54daa3602483045022100c9aa17baae3d380452f276d1ad829f15589e250a46b0a42e8fcbf1bb4e24c160022054565685ec53db660a068f9edcd7bd742379ec2e39b5865cd5161418d3a37d7a01210229b42fa7f046c3f453ef30d49573a076ad357b3c72ec9b3139705bb7e54daa3602483045022100cc83a4baa6cd79c8ea33bb5bc3707a5e81c1935230377289dde13feddf7647ef022040aad029a17d678d228f06a5eded6d8b622e0af9f567734967cd2f32cdf4721d01210229b42fa7f046c3f453ef30d49573a076ad357b3c72ec9b3139705bb7e54daa360247304402206203a2097dc5e9c5397d855685c51ade7d811b35e99cbde9ee85b61cf9aae48a02200a7b83143890073d751fa260cbe2f798c10e81bcaef009e7234151da872f297f01210229b42fa7f046c3f453ef30d49573a076ad357b3c72ec9b3139705bb7e54daa3602483045022100a24c4d944cd894d2a51da01e6a748fc0f947208ffe30888af800b4075e01e234022032697b950b08e19e313e105ffe874b9d99393dc869dd7f3ba5cf0d3ae869433801210229b42fa7f046c3f453ef30d49573a076ad357b3c72ec9b3139705bb7e54daa360247304402201f1c6c0d92153f252eae1f770bdd22ec59ea540eddd8caba795c895a7e926f0402200afba243c7f1b9d5e7a7cbd7328d772ed67fefba779d2031effeee0c19d0f0be01210229b42fa7f046c3f453ef30d49573a076ad357b3c72ec9b3139705bb7e54daa3600000000",
  "decoded_raw_transaction": {
    "txid": "3aa0cb3d3bdb628c68a0682954a73bff34f33aa5ea9d78828ddcbd4d47addb91",
    "hash": "a869aadec6ee2c4bbb795b0db7c51d309d6167c981558f349663798083d4c590",
    "version": 2,
    "size": 2326,
    "vsize": 1116,
    "weight": 4462,
    "locktime": 0,
    "vin": [
      {
        "txid": "56d58124cb9edc8c16f22c80dfd4637459ff81ad952e10fde182fee8eae1f530",
        "vout": 0,
        "scriptSig": { "asm": "", "hex": "" },
        "txinwitness": [
          "304402203bcba4c95d943534d1dcf207bf2144149412e94c7e82880a9983b2c78eea551e02202f4fba97f8141f9ef5bef56caf39933b2c1ff3e04c50024a07cb320f8616595101",
          "0229b42fa7f046c3f453ef30d49573a076ad357b3c72ec9b3139705bb7e54daa36"
        ],
        "sequence": 4294967295
      },
      {
        "txid": "26289e6330fab85385838d518d2a99d5782b727b66cd266977d677f4b62a9b6c",
        "vout": 0,
        "scriptSig": { "asm": "", "hex": "" },
        "txinwitness": [
          "3045022100d2af75e43e5e1a87bc8c70e8084e0da57be47aa7a1777eb9a098dd65ee5bf2a00220181e162982628bd8fe401ed6eff47c96ba71987896b4f9e60c616b40e7d8267c01",
          "0229b42fa7f046c3f453ef30d49573a076ad357b3c72ec9b3139705bb7e54daa36"
        ],
        "sequence": 4294967295
      },
      {
        "txid": "bc8c2b661158d48122096f4dc6e475222d22eb18d3a166173366c4ead2956cc6",
        "vout": 0,
        "scriptSig": { "asm": "", "hex": "" },
        "txinwitness": [
          "3044022022ce762be7e8125be12bbd5b3f636d528deecae8f8fbde0fe0ca2c03d150ce39022076aec0d4c263a1ebe0438e4ff6e8faffb5fcd73546443f180334c485da04722f01",
          "0229b42fa7f046c3f453ef30d49573a076ad357b3c72ec9b3139705bb7e54daa36"
        ],
        "sequence": 4294967295
      },
      {
        "txid": "d7f2b14e362a34a38d35cc97746b73b6d48d80700f86da0aa17ae78e841058d2",
        "vout": 0,
        "scriptSig": { "asm": "", "hex": "" },
        "txinwitness": [
          "304402201cd2bf3c1c7bb26e8a50b9d317ab47f169d978bbf4fc52161a6917ad2455bbe2022039664444aa732054a604a79dc9bf2915528d6eb84814f7a93dd1396d85cbadf601",
          "0229b42fa7f046c3f453ef30d49573a076ad357b3c72ec9b3139705bb7e54daa36"
        ],
        "sequence": 4294967295
      },
      {
        "txid": "830ba8fa4eb086c7f6333b5977ae423d7b70621897dc3fa8106e7609a78be320",
        "vout": 0,
        "scriptSig": { "asm": "", "hex": "" },
        "txinwitness": [
          "30440220110c10277edb46954831c66bb347a2bf2684666fc430a1621557f4a806b6d7a502207673b20c08ae0c80be6f61e10ee073f37fcb8531cc46896c8ce78ef06f0c05a601",
          "0229b42fa7f046c3f453ef30d49573a076ad357b3c72ec9b3139705bb7e54daa36"
        ],
        "sequence": 4294967295
      },
      {
        "txid": "6ac75b85a77accd39a9384537da83aac037795cd8b31feae31d5f1894929031d",
        "vout": 0,
        "scriptSig": { "asm": "", "hex": "" },
        "txinwitness": [
          "3045022100cdfeeab48db8c27e915643c4279e6905932ad7eab0e233ab0513bee2da192cff02206b938d7b278f1c6f9037885de9f3e81755c920bf259e0d8bc020ef757145247301",
          "0229b42fa7f046c3f453ef30d49573a076ad357b3c72ec9b3139705bb7e54daa36"
        ],
        "sequence": 4294967295
      },
      {
        "txid": "83e20e24d98d513a4468ea836bef52f82f0ca372474a0c75f2a43f30d28fbf9a",
        "vout": 0,
        "scriptSig": { "asm": "", "hex": "" },
        "txinwitness": [
          "30440220647c19774efe6a8214d8480118ca56d0d75fd7f0c0796d9d8941a9953a8f9de7022053b467d66ef3350af95947e795267780cc8253c00e6768824fc5106f4ad5728101",
          "0229b42fa7f046c3f453ef30d49573a076ad357b3c72ec9b3139705bb7e54daa36"
        ],
        "sequence": 4294967295
      },
      {
        "txid": "513ca1c5eefe61c5855acbdad956f9fc95df18407fa10156661e0eacf315491a",
        "vout": 0,
        "scriptSig": { "asm": "", "hex": "" },
        "txinwitness": [
          "3045022100a72c9c6f4a76002d059794d484fd2e6c2cb78b97411f64226a28b14560108d70022029fff0011a2b752bff5fd0277fc3ec01a0b504e9004a33682a7d9e933c25308201",
          "0229b42fa7f046c3f453ef30d49573a076ad357b3c72ec9b3139705bb7e54daa36"
        ],
        "sequence": 4294967295
      },
      {
        "txid": "b1905ccd9ccb9fa0549afc6fafaaf47bf635c2e8383c63f8f91a9f163be4079b",
        "vout": 0,
        "scriptSig": { "asm": "", "hex": "" },
        "txinwitness": [
          "3045022100f4346cb3bb5f405531a2dd84d4a4407b409bdc122718e64bf6ddd38f459401a6022033085b88be6cd166c9500d77bda156e38626121f7c9831ae13a0380f1150284701",
          "0229b42fa7f046c3f453ef30d49573a076ad357b3c72ec9b3139705bb7e54daa36"
        ],
        "sequence": 4294967295
      },
      {
        "txid": "c037ad7ee0d0799c2a5116098706b1a7ff094bd3d4c8f1c15b2257266361cf25",
        "vout": 0,
        "scriptSig": { "asm": "", "hex": "" },
        "txinwitness": [
          "304402204ef1aa2ceb03d35351d65bbc313c9a19717a57b213dc7da73dcccebfc7d158580220104bde5f43d28dc844325f1a4cf8c50fc07cea112a04cc0609f7e350d2036b7301",
          "0229b42fa7f046c3f453ef30d49573a076ad357b3c72ec9b3139705bb7e54daa36"
        ],
        "sequence": 4294967295
      },
      {
        "txid": "9926239c324cddb24f2af95802e1bffc43d5049145ca42e72f71dbdc5e08611b",
        "vout": 0,
        "scriptSig": { "asm": "", "hex": "" },
        "txinwitness": [
          "3045022100c9aa17baae3d380452f276d1ad829f15589e250a46b0a42e8fcbf1bb4e24c160022054565685ec53db660a068f9edcd7bd742379ec2e39b5865cd5161418d3a37d7a01",
          "0229b42fa7f046c3f453ef30d49573a076ad357b3c72ec9b3139705bb7e54daa36"
        ],
        "sequence": 4294967295
      },
      {
        "txid": "370fcb7142e1928540d368872fa08b06d87e951e08f6b7b15c5953b517b3fc50",
        "vout": 0,
        "scriptSig": { "asm": "", "hex": "" },
        "txinwitness": [
          "3045022100cc83a4baa6cd79c8ea33bb5bc3707a5e81c1935230377289dde13feddf7647ef022040aad029a17d678d228f06a5eded6d8b622e0af9f567734967cd2f32cdf4721d01",
          "0229b42fa7f046c3f453ef30d49573a076ad357b3c72ec9b3139705bb7e54daa36"
        ],
        "sequence": 4294967295
      },
      {
        "txid": "0b01a5c84d4612fe08a18e43dfeaff2ee2d02f0ad0894c9214a8e3eac8d279ce",
        "vout": 0,
        "scriptSig": { "asm": "", "hex": "" },
        "txinwitness": [
          "304402206203a2097dc5e9c5397d855685c51ade7d811b35e99cbde9ee85b61cf9aae48a02200a7b83143890073d751fa260cbe2f798c10e81bcaef009e7234151da872f297f01",
          "0229b42fa7f046c3f453ef30d49573a076ad357b3c72ec9b3139705bb7e54daa36"
        ],
        "sequence": 4294967295
      },
      {
        "txid": "2b899fbc140c28cd45cf01019a102eab255f38ebd6edb21b8d8f36d9fa35ef16",
        "vout": 0,
        "scriptSig": { "asm": "", "hex": "" },
        "txinwitness": [
          "3045022100a24c4d944cd894d2a51da01e6a748fc0f947208ffe30888af800b4075e01e234022032697b950b08e19e313e105ffe874b9d99393dc869dd7f3ba5cf0d3ae869433801",
          "0229b42fa7f046c3f453ef30d49573a076ad357b3c72ec9b3139705bb7e54daa36"
        ],
        "sequence": 4294967295
      },
      {
        "txid": "81bab6e35bfc5b0ef01fe8ba2ec789e327aced71745044e0e4f8a7f51e6d1532",
        "vout": 0,
        "scriptSig": { "asm": "", "hex": "" },
        "txinwitness": [
          "304402201f1c6c0d92153f252eae1f770bdd22ec59ea540eddd8caba795c895a7e926f0402200afba243c7f1b9d5e7a7cbd7328d772ed67fefba779d2031effeee0c19d0f0be01",
          "0229b42fa7f046c3f453ef30d49573a076ad357b3c72ec9b3139705bb7e54daa36"
        ],
        "sequence": 4294967295
      }
    ],
    "vout": [
      {
        "value": 2.223e-5,
        "n": 0,
        "scriptPubKey": {
          "asm": "0 c4ff9b64146aa85c68d159b33fac787d2ca739ce",
          "hex": "0014c4ff9b64146aa85c68d159b33fac787d2ca739ce",
          "reqSigs": 1,
          "type": "witness_v0_keyhash",
          "addresses": ["tb1qcnlekeq5d259c6x3txenltrc05k2wwwwyfxphe"]
        }
      },
      {
        "value": 0.00030059,
        "n": 1,
        "scriptPubKey": {
          "asm": "0 11c0afb93b09754c404d6d07d0177e47e50a7af6",
          "hex": "001411c0afb93b09754c404d6d07d0177e47e50a7af6",
          "reqSigs": 1,
          "type": "witness_v0_keyhash",
          "addresses": ["tb1qz8q2lwfmp965cszdd5raq9m7gljs57hkzpw56d"]
        }
      },
      {
        "value": 0,
        "n": 2,
        "scriptPubKey": {
          "asm": "OP_RETURN 535741503a54484f522e52554e45",
          "hex": "6a0e535741503a54484f522e52554e45",
          "type": "nulldata"
        }
      }
    ]
  }
}
