{
  "raw_transaction": "02000000000102c854bd5d6302a86a38e4807731bdd412788358f7c7b4e8561e4214040f5ee85c0000000000ffffffffc854bd5d6302a86a38e4807731bdd412788358f7c7b4e8561e4214040f5ee85c0100000000ffffffff0250c30000000000001600143f664a7450068db4646cbd8d0c45ab6c27d5cd6fbcec1500000000001600148f74b69971b56dddbb43832cee3bf3d4862e690a02483045022100b90536e0804656e2dfcebcc5ebab8e6f2084828f200db7aba3f3fde8257c27dc02207271c774a171cf7454e93589ce89213ac14ce84a138cd774f57cad16b8fab36e012102c2e3a82596316020289de46bde5a65ef61321960e53ce3b90f20484c6e2f33f702473044022010e01604a5cb076d5238896f8acb9d353e9f05563b6898862775cd6939ff6fca02203bce91e2213e03705e1d0ac498852fd1c4e0063e790a3956ffa7bf3701416a7a012102c2e3a82596316020289de46bde5a65ef61321960e53ce3b90f20484c6e2f33f700000000",
  "decoded_raw_transaction": {
    "txid": "822da352ee98395d873d54eb39c65ea0b21995fbed06d0c996d93c5d82dc63d4",
    "hash": "b2bbae58ec50de6a16f6e9088af6cec356817586efbdd15c611acff86f352f14",
    "version": 2,
    "size": 371,
    "vsize": 209,
    "weight": 833,
    "locktime": 0,
    "vin": [
      {
        "txid": "5ce85e0f0414421e56e8b4c7f758837812d4bd317780e4386aa802635dbd54c8",
        "vout": 0,
        "scriptSig": {
          "asm": "",
          "hex": ""
        },
        "txinwitness": [
          "3045022100b90536e0804656e2dfcebcc5ebab8e6f2084828f200db7aba3f3fde8257c27dc02207271c774a171cf7454e93589ce89213ac14ce84a138cd774f57cad16b8fab36e01",
          "02c2e3a82596316020289de46bde5a65ef61321960e53ce3b90f20484c6e2f33f7"
        ],
        "sequence": 4294967295
      },
      {
        "txid": "5ce85e0f0414421e56e8b4c7f758837812d4bd317780e4386aa802635dbd54c8",
        "vout": 1,
        "scriptSig": {
          "asm": "",
          "hex": ""
        },
        "txinwitness": [
          "3044022010e01604a5cb076d5238896f8acb9d353e9f05563b6898862775cd6939ff6fca02203bce91e2213e03705e1d0ac498852fd1c4e0063e790a3956ffa7bf3701416a7a01",
          "02c2e3a82596316020289de46bde5a65ef61321960e53ce3b90f20484c6e2f33f7"
        ],
        "sequence": 4294967295
      }
    ],
    "vout": [
      {
        "value": 0.0005,
        "n": 0,
        "scriptPubKey": {
          "asm": "0 3f664a7450068db4646cbd8d0c45ab6c27d5cd6f",
          "hex": "00143f664a7450068db4646cbd8d0c45ab6c27d5cd6f",
          "reqSigs": 1,
          "type": "witness_v0_keyhash",
          "addresses": ["tb1q8any5azsq6xmgervhkxsc3dtdsnatnt0tar3gv"]
        }
      },
      {
        "value": 0.0143686,
        "n": 1,
        "scriptPubKey": {
          "asm": "0 8f74b69971b56dddbb43832cee3bf3d4862e690a",
          "hex": "00148f74b69971b56dddbb43832cee3bf3d4862e690a",
          "reqSigs": 1,
          "type": "witness_v0_keyhash",
          "addresses": ["tb1q3a6tdxt3k4kamw6rsvkwuwln6jrzu6g2zltjmc"]
        }
      }
    ]
  }
}
