{
  "raw_transaction": "020000000001014285eed276449ee019d2525ab1f14e7b74e756e30b4daf142a6a862f8c2597f8010000001716001476fb4ad4c94bc217dc39d2bbd315412f1a4b098afeffffff02a0860100000000001600148f5ef84efec8f02b16b6a9d39282827a7ed44ef5454186000000000016001431abd119ff75578d13fc1e294eda97ffb8a741ee0247304402203df07aa9b9cd423ee04e99d6c92587056841a4d99a92171497ddb80154aae8a302201f67daa79aacb95eafb6b886967e4529feae25b3eb0b9cb268f76c396e535a5a012102f0937b6d2ec8f76768906695f6605d9d590139bfcf9eb900f3583cd6aad991b4cc761c00",
  "decoded_raw_transaction": {
    "txid": "b660ee07167cfa32681e2623f3a29dc64a089cabd9a3a07dd17f9028ac956eb8",
    "hash": "36af01f855bb33768cd167afadc78ab6f65db95752eb9a9dcb16e46d20dcaf57",
    "version": 2,
    "size": 245,
    "vsize": 164,
    "weight": 653,
    "locktime": 1865420,
    "vin": [
      {
        "txid": "f897258c2f866a2a14af4d0be356e7747b4ef1b15a52d219e09e4476d2ee8542",
        "vout": 1,
        "scriptSig": {
          "asm": "001476fb4ad4c94bc217dc39d2bbd315412f1a4b098a",
          "hex": "16001476fb4ad4c94bc217dc39d2bbd315412f1a4b098a"
        },
        "txinwitness": [
          "304402203df07aa9b9cd423ee04e99d6c92587056841a4d99a92171497ddb80154aae8a302201f67daa79aacb95eafb6b886967e4529feae25b3eb0b9cb268f76c396e535a5a01",
          "02f0937b6d2ec8f76768906695f6605d9d590139bfcf9eb900f3583cd6aad991b4"
        ],
        "sequence": 4294967294
      }
    ],
    "vout": [
      {
        "value": 0.001,
        "n": 0,
        "scriptPubKey": {
          "asm": "0 8f5ef84efec8f02b16b6a9d39282827a7ed44ef5",
          "hex": "00148f5ef84efec8f02b16b6a9d39282827a7ed44ef5",
          "reqSigs": 1,
          "type": "witness_v0_keyhash",
          "addresses": ["tb1q3a00snh7erczk94k48fe9q5z0fldgnh4twsh29"]
        }
      },
      {
        "value": 0.08798533,
        "n": 1,
        "scriptPubKey": {
          "asm": "0 31abd119ff75578d13fc1e294eda97ffb8a741ee",
          "hex": "001431abd119ff75578d13fc1e294eda97ffb8a741ee",
          "reqSigs": 1,
          "type": "witness_v0_keyhash",
          "addresses": ["tb1qxx4azx0lw4tc6ylurc55ak5hl7u2ws0w9kw9h3"]
        }
      }
    ]
  }
}
