{
  "raw_transaction":"0200000000010118bb5f486d8a49d32455e5ca02f40ed4fa1eaadecda3305246ad22bf6a039e8e0100000000feffffff02f82a0000000000001600147d48afcd6fef2047f9802b5147287399492fc462b2ab192200000000160014afe8f6593e112295fd86a8c90973286063535bb90247304402202fdb46d4eb0c255c1bc6208bfb633226e46a3145ecbffda73c66e589e064b8f402200eaa982c078b7fb33f80374390faea5db2ae624a389b07b0eb4b47a997718bb90121031238714b01b07e8caa2d568f273edb84cc461e28f71483fbb12389321fe9a0f257db1c00",
  "decoded_raw_transaction":{
    "txid":"d931f21a4f39b320e2cb8fb78dc9eedb28ba0217d5488be16e9b1da833b9a3e1",
    "hash":"c5840ee535a758a8b96c878a0321a46b2bc12487bbe24bb662f5d920f049f4d0",
    "version":2,
    "size":222,
    "vsize":141,
    "weight":561,
    "locktime":1891159,
    "vin":[
      {
        "txid":"8e9e036abf22ad465230a3cddeaa1efad40ef402cae55524d3498a6d485fbb18",
        "vout":1,
        "scriptSig":{
            "asm":"",
            "hex":""
        },
        "txinwitness":[
            "304402202fdb46d4eb0c255c1bc6208bfb633226e46a3145ecbffda73c66e589e064b8f402200eaa982c078b7fb33f80374390faea5db2ae624a389b07b0eb4b47a997718bb901",
            "031238714b01b07e8caa2d568f273edb84cc461e28f71483fbb12389321fe9a0f2"
        ],
        "sequence":4294967294
      }
    ],
    "vout":[
      {
        "value":0.00011,
        "n":0,
        "scriptPubKey":{
            "asm":"0 7d48afcd6fef2047f9802b5147287399492fc462",
            "hex":"00147d48afcd6fef2047f9802b5147287399492fc462",
            "reqSigs":1,
            "type":"witness_v0_keyhash",
            "addresses":[
              "tb1q04y2lnt0ausy07vq9dg5w2rnn9yjl3rzgjhra4"
            ]
        }
      },
      {
        "value":5.72107698,
        "n":1,
        "scriptPubKey":{
            "asm":"0 afe8f6593e112295fd86a8c90973286063535bb9",
            "hex":"0014afe8f6593e112295fd86a8c90973286063535bb9",
            "reqSigs":1,
            "type":"witness_v0_keyhash",
            "addresses":[
              "tb1q4l50vkf7zy3ftlvx4rysjuegvp34xkaea97jwy"
            ]
        }
      }
    ]
  }
}
