{
  "addresses": {
    "tb1q3a00snh7erczk94k48fe9q5z0fldgnh4twsh29": {
      "address": {
        "type": "witness_v0_scripthash",
        "script_hex": "00148f5ef84efec8f02b16b6a9d39282827a7ed44ef5",
        "balance": 102000,
        "balance_usd": 0,
        "received": 102000,
        "received_usd": 0,
        "spent": 0,
        "spent_usd": 0,
        "output_count": 2,
        "unspent_output_count": 2,
        "first_seen_receiving": "2020-10-29 06:55:52",
        "last_seen_receiving": "2020-10-29 06:55:52",
        "first_seen_spending": null,
        "last_seen_spending": null,
        "scripthash_type": null,
        "transaction_count": 2
      },
      "transactions": [
        "b660ee07167cfa32681e2623f3a29dc64a089cabd9a3a07dd17f9028ac956eb8",
        "5d13e94178c07d5e824968922766222a70253f9b8fa49e2c1ec63e105663cd54"
      ],
      "utxo": [
        {
          "block_id": 1865421,
          "transaction_hash": "b660ee07167cfa32681e2623f3a29dc64a089cabd9a3a07dd17f9028ac956eb8",
          "index": 0,
          "value": 100000
        },
        {
          "block_id": 1865421,
          "transaction_hash": "5d13e94178c07d5e824968922766222a70253f9b8fa49e2c1ec63e105663cd54",
          "index": 0,
          "value": 2000
        }
      ]
    },
    "tb1qcnlekeq5d259c6x3txenltrc05k2wwwwyfxphe": {
      "address": {
        "type": "witness_v0_scripthash",
        "script_hex": "0014c4ff9b64146aa85c68d159b33fac787d2ca739ce",
        "balance": 37409,
        "balance_usd": 0,
        "received": 4002108,
        "received_usd": 0,
        "spent": 3964699,
        "spent_usd": 0,
        "output_count": 89,
        "unspent_output_count": 3,
        "first_seen_receiving": "2020-10-29 06:55:52",
        "last_seen_receiving": "2020-11-07 06:23:17",
        "first_seen_spending": "2020-10-29 06:55:52",
        "last_seen_spending": "2020-11-07 06:23:17",
        "scripthash_type": null,
        "transaction_count": 90
      },
      "transactions": [
        "3aa0cb3d3bdb628c68a0682954a73bff34f33aa5ea9d78828ddcbd4d47addb91",
        "175af6b3e60550f86c794cb6f90262662b29ba75c0538c1110a3e5848a796102",
        "599117e0a0a942fc62c4efecd1989bb6559c7bdae3cd2aeea78cebcfe0e3d339",
        "ddd3f3224cc5c92ac1ff74f53143b169f78c815942031879427c52449d2d76a1",
        "07bdaba70e6e0a7b4dbf83733a2be914a2f9b92fb15a9d4550eb92ceedd7346e",
        "56d58124cb9edc8c16f22c80dfd4637459ff81ad952e10fde182fee8eae1f530",
        "26289e6330fab85385838d518d2a99d5782b727b66cd266977d677f4b62a9b6c",
        "bc8c2b661158d48122096f4dc6e475222d22eb18d3a166173366c4ead2956cc6",
        "d7f2b14e362a34a38d35cc97746b73b6d48d80700f86da0aa17ae78e841058d2",
        "830ba8fa4eb086c7f6333b5977ae423d7b70621897dc3fa8106e7609a78be320",
        "6ac75b85a77accd39a9384537da83aac037795cd8b31feae31d5f1894929031d",
        "83e20e24d98d513a4468ea836bef52f82f0ca372474a0c75f2a43f30d28fbf9a",
        "513ca1c5eefe61c5855acbdad956f9fc95df18407fa10156661e0eacf315491a",
        "b1905ccd9ccb9fa0549afc6fafaaf47bf635c2e8383c63f8f91a9f163be4079b",
        "c037ad7ee0d0799c2a5116098706b1a7ff094bd3d4c8f1c15b2257266361cf25",
        "9926239c324cddb24f2af95802e1bffc43d5049145ca42e72f71dbdc5e08611b",
        "370fcb7142e1928540d368872fa08b06d87e951e08f6b7b15c5953b517b3fc50",
        "0b01a5c84d4612fe08a18e43dfeaff2ee2d02f0ad0894c9214a8e3eac8d279ce",
        "2b899fbc140c28cd45cf01019a102eab255f38ebd6edb21b8d8f36d9fa35ef16",
        "81bab6e35bfc5b0ef01fe8ba2ec789e327aced71745044e0e4f8a7f51e6d1532",
        "a1f3e68a13144d0b94ea7e869058da178fbd2dd86f7a26763a6fd5096b56c4ca",
        "2024a5c4681b49e52338e0f9e51f33015737ee93c04f33bb822f652e56ffbf2b",
        "f34e3fd200ee105d38d3944480059afde0bb51fe453033a166865380925853fa",
        "bad7c1baf06e1b5b63f49a584b16578df2c7fdbad300bf76d164cdc31e25d361",
        "1d6a6052fb5a05ba57c740ca0f6483e3032fd34635d728bed8a3d4a1b51f4c38",
        "088bb099f5746ef6115ae67017f6333816175123f7c48eeb15a43273403bba4a",
        "0b5ca19d6f6e1ad2820442cba43f4039f58a75642ed4aba642dc17e86ad3c8cf",
        "f558fe8194d4b3c7f6eef81466eda23a0d2f9062132b673755d690989df7f080",
        "b41ebec6b56b8ad3952640d52effa595e70deb20590e64da30cb7fb4a7d73e4f",
        "7c0b9a2e79c6ed40ee5fd1a9047701b59433a2a2179012e561a8e362a02b99e0",
        "af53a57c484f225483c51ac1102171d06ddabd88d71acfef97ef6842179a1465",
        "39d09e6d4d11774280f8302cab127dae472e55341eeca17968e85f901c3da586",
        "1e80db9b77df7db135faf271a1dcb0bed577a8b479ae092b49a24dcbfbf3fb5b",
        "75c8ffb52e4b5f9bef68ad4f86bb2e395fcf87055226d4fc33b02bb4171b11c4",
        "000229849e20213a9416a2e26087aa4d5a2fe0cbca2f398e9ffd4df42b7a950a",
        "5c7aa7cedb8006ff8422bb6d88ec9ff8e5e35fcbe077e2cbb332a8a1a4eb5c0e",
        "ea53e0db9e5ecb0b5a5289fead58ef926b704feaf239a62dfb62617fa847d270",
        "507f866f58e99e1a463e2258ed18a635aea02ed94f7e61d1c29cc8f29d66a70d",
        "85ee8a1c0f6df5b58e05587acbba2f520db25ad810fc34eb68bb8dfc112aaab6",
        "85f061cbe8fb809706979fa79ef6577eb70c70dde6a18685f304d05461db6146",
        "81842cad4b55a0e3d14c62db7b09a47de1d1c757cbe5159f356712a740591008",
        "ff67ecd399c027f55f53b55bc31d246a0b24d7729a93c018c90a11da0adc1ff4",
        "e2885b7259de9dbbf1b8b4b2b774a817acaba4e3561dd177da173b7af219fb65",
        "9df57b8abcb1f597bf32130134e1a266d249010f1e5ab5718557d0ac22b7f9bf",
        "c2a0fdad053c35e68f4a5067b767552d799455b8246cec5bb1209f049d44e247",
        "ac26a70392d86f2266874234b63a7bcbd74b94c600a3edc5bde1bc350f6587e7",
        "f8064cbd55fc5ac9a901442151c8e9d27c7a1e5e174b0279cdc255e7db4267a1",
        "f18844330388aa5f34ecba1c53e8e984664eb8dd8341a1bb2ae8c97bec982eb2",
        "d5e403d795a8e702de928463968167ee1d7dd4d1eaad8479736b4425046caa94",
        "57884e9774d820bb172e841e2ae9dcf13f96fb2e3755949da2a657a8caabd193",
        "3d6015e29f50fbec4b2b99827e5f37efdf84f6ad4926557300c927b53dce7b83",
        "c9530ee391a9b0deeaf0d3b08b2e9aa5a3f0565f076683b62516d8b65d141c9a",
        "1f1aa8cb281dcad77f502036cad330ca9fb598d01d96bf678b23d6612b22d238",
        "ce285070dbe49a3647a9d3a3733656d06c20ba6cc255e995b26906d73f3bdc7c",
        "3732b5c622f244f43d4d4d1079caecb4e21163f1722eb92b5739e17d9628514b",
        "cdaa966d09d7343e3641ff32778505ecfd720a4e0cc38339d31e2fdd196e310f",
        "653072dd566994d6637f56a304589a5f82c76fc55e2ad89c9a6e26b74b7caf08",
        "b5b7eea8faa44b2cfcb90101e56f006ca67fbb7c0628de90aa2db4b7653e1fdc",
        "a6dc37d0d8e04ac0ac71ffa713fa59217c5d8a9468439fbcdc9452339edeac3b",
        "1aa137a504d0693bad618145d0129471f34d6c8bada89508fe3e7943613cf4a5",
        "57f27ce976acd7d35ac674918ce9fbe0c125d192065e0c6b9fbc073e6ecec981",
        "87852135c5b843ff007e5a17db66ec9efba774b53d19e39d6d7fddf08cd79733",
        "00eb009f59e610690a810db917e38ed6b56d2ece5edfd5ee31fae10c1b33c6d7",
        "6a68a5f6f10319d6e36a4b2f892516ad0f85a7689bd2ca8ba65fdd72d241fc14",
        "7b0b3788852cfb83904a843ac0d5fe1f5f7d40ca5754526f7e2c76e18112f874",
        "de09834bd5045795fd24c96d18f3db93c710cb774c2d0f0950e8f78b32640ec7",
        "899d58710f2b68863f5dec562bf62e8fb3b476ec7fde85801ca852c712edf73b",
        "11f8d9385a3af901b99f1d83414698801c59db43ee700395bfa386d0754258be",
        "b6c6f6a1f616f01aad10dc33d1a705b9cbea257ee41834f7465cc412ee7928ef",
        "891b2ec135803278255b1d2157d95843b27376d5aff5eb1fe3499bf8a449b649",
        "c7cbd1b12934600a69bba184fc473eb0fc2b3384106e505ed0b27b1635e393cd",
        "7e1475c1624c4bdaab5f5ec33f3b1d485bc886d2ec75a3f8a7dd3c3e3767546f",
        "16891fdccc894ac49568ba11de2f93d6f7c0ccb67b8d2c799d328e2d0db6ddb8",
        "2e55c27e0a0a4860284a42aad513f1b34acc1c44740aa91f5ef5e3a995dda7d8",
        "3de633611d9447896486d913b8c5c9c7070b37e474206f811ef987e84c297828",
        "05cf6763d3dad6795ca9bff93099529f1770682783f1882e78dcb2c8fb2369f5",
        "4fdf362063523d390855322b99b6fe59abe1fc345ac8ce10f820d133322ad884",
        "c357703bf3c8311f5fb87b606a6008132c12cbcb84010119ffd89e73e7ed61f3",
        "da9d31ecc130a58dfe38e82fcbea35a94554ed8a775982fa12cc9b6259dab100",
        "b461988cd56bd5ebdac61b48169c627bfd380a805b468eacfb827d34ce1dac87",
        "d09ae8a6715328d02a43f705dac45a02344c41e9c149511c2c4c4bcaa61b9dcc",
        "6cc14b78ad556d109b5d3d4a61a820024290f9e4ba63f9744af830a423057b8b",
        "13d1b4a256c22345684de41b43310421e8330b872b581016028343ebb8a7aceb",
        "8c6b9883fafdfa5119044bd77fdfba4159a6aa2995e7185ea898be6533be5891",
        "80fdfd8585e97768487abcdb6ca6ec661ceca795c70f3d8ad8c78f0950b8a1bb",
        "ad31bbbf156c9343a5506509a67a98fbf2c44048303f8e75010ae0ea26b19e7c",
        "193db449ea36b986d9eec2243143c3f0fdf81ad0a5541e620c236a4bcb5dc5d0",
        "6b415a98ec50324b60be4b77bcb0d66b9c9b3de9cce4d227dda2f254abb92743",
        "38fcb3dfbb4f83df983f5f48f7fc5bde2c5a51393d98c4b62ecefb39101cc631",
        "0273d32a4db46b9afc3893e2963f38a3fe875b418db31312dea44f4050946017"
      ],
      "utxo": [
        {
          "block_id": -1,
          "transaction_hash": "3aa0cb3d3bdb628c68a0682954a73bff34f33aa5ea9d78828ddcbd4d47addb91",
          "index": 0,
          "value": 2223
        },
        {
          "block_id": 1889177,
          "transaction_hash": "175af6b3e60550f86c794cb6f90262662b29ba75c0538c1110a3e5848a796102",
          "index": 1,
          "value": 34186
        },
        {
          "block_id": 1888996,
          "transaction_hash": "ddd3f3224cc5c92ac1ff74f53143b169f78c815942031879427c52449d2d76a1",
          "index": 0,
          "value": 1000
        }
      ]
    }
  },
  "rawTransactions": {
    "b660ee07167cfa32681e2623f3a29dc64a089cabd9a3a07dd17f9028ac956eb8": {
      "raw_transaction": "020000000001014285eed276449ee019d2525ab1f14e7b74e756e30b4daf142a6a862f8c2597f8010000001716001476fb4ad4c94bc217dc39d2bbd315412f1a4b098afeffffff02a0860100000000001600148f5ef84efec8f02b16b6a9d39282827a7ed44ef5454186000000000016001431abd119ff75578d13fc1e294eda97ffb8a741ee0247304402203df07aa9b9cd423ee04e99d6c92587056841a4d99a92171497ddb80154aae8a302201f67daa79aacb95eafb6b886967e4529feae25b3eb0b9cb268f76c396e535a5a012102f0937b6d2ec8f76768906695f6605d9d590139bfcf9eb900f3583cd6aad991b4cc761c00",
      "decoded_raw_transaction": {
        "txid": "b660ee07167cfa32681e2623f3a29dc64a089cabd9a3a07dd17f9028ac956eb8",
        "hash": "36af01f855bb33768cd167afadc78ab6f65db95752eb9a9dcb16e46d20dcaf57",
        "version": 2,
        "size": 245,
        "vsize": 164,
        "weight": 653,
        "locktime": 1865420,
        "vin": [
          {
            "txid": "f897258c2f866a2a14af4d0be356e7747b4ef1b15a52d219e09e4476d2ee8542",
            "vout": 1,
            "scriptSig": {
              "asm": "001476fb4ad4c94bc217dc39d2bbd315412f1a4b098a",
              "hex": "16001476fb4ad4c94bc217dc39d2bbd315412f1a4b098a"
            },
            "txinwitness": [
              "304402203df07aa9b9cd423ee04e99d6c92587056841a4d99a92171497ddb80154aae8a302201f67daa79aacb95eafb6b886967e4529feae25b3eb0b9cb268f76c396e535a5a01",
              "02f0937b6d2ec8f76768906695f6605d9d590139bfcf9eb900f3583cd6aad991b4"
            ],
            "sequence": 4294967294
          }
        ],
        "vout": [
          {
            "value": 0.001,
            "n": 0,
            "scriptPubKey": {
              "asm": "0 8f5ef84efec8f02b16b6a9d39282827a7ed44ef5",
              "hex": "00148f5ef84efec8f02b16b6a9d39282827a7ed44ef5",
              "reqSigs": 1,
              "type": "witness_v0_keyhash",
              "addresses": ["tb1q3a00snh7erczk94k48fe9q5z0fldgnh4twsh29"]
            }
          },
          {
            "value": 0.08798533,
            "n": 1,
            "scriptPubKey": {
              "asm": "0 31abd119ff75578d13fc1e294eda97ffb8a741ee",
              "hex": "001431abd119ff75578d13fc1e294eda97ffb8a741ee",
              "reqSigs": 1,
              "type": "witness_v0_keyhash",
              "addresses": ["tb1qxx4azx0lw4tc6ylurc55ak5hl7u2ws0w9kw9h3"]
            }
          }
        ]
      }
    },
    "5d13e94178c07d5e824968922766222a70253f9b8fa49e2c1ec63e105663cd54": {
      "raw_transaction": "02000000000101d84f3903ecdd350d0528e257c3a35afcc07312118d47b6853f4a23cdcc322b330000000000feffffff02d0070000000000001600148f5ef84efec8f02b16b6a9d39282827a7ed44ef56af66926000000001600149a5b76205399d510edab5ffc6fb74f68073c66dc02473044022034dd07ef6e3eea1497fa84fce0bdd74e9354cb39a30331d10ed5d4b848d4d5a602207f2594a82058f1c5774c7b9b3e46c256fe2a673a60861d5150e39a86fa595279012103a7063e9051f0374739dd2228cf7f903949e9109e4dfa97c1630ebba8c00d280ecc761c00",
      "decoded_raw_transaction": {
        "txid": "5d13e94178c07d5e824968922766222a70253f9b8fa49e2c1ec63e105663cd54",
        "hash": "7a6490b61c91231471fe03f4a3f25cc71214d95581bbd822e058501e0a4af88e",
        "version": 2,
        "size": 222,
        "vsize": 141,
        "weight": 561,
        "locktime": 1865420,
        "vin": [
          {
            "txid": "332b32cccd234a3f85b6478d111273c0fc5aa3c357e228050d35ddec03394fd8",
            "vout": 0,
            "scriptSig": { "asm": "", "hex": "" },
            "txinwitness": [
              "3044022034dd07ef6e3eea1497fa84fce0bdd74e9354cb39a30331d10ed5d4b848d4d5a602207f2594a82058f1c5774c7b9b3e46c256fe2a673a60861d5150e39a86fa59527901",
              "03a7063e9051f0374739dd2228cf7f903949e9109e4dfa97c1630ebba8c00d280e"
            ],
            "sequence": 4294967294
          }
        ],
        "vout": [
          {
            "value": 2.0e-5,
            "n": 0,
            "scriptPubKey": {
              "asm": "0 8f5ef84efec8f02b16b6a9d39282827a7ed44ef5",
              "hex": "00148f5ef84efec8f02b16b6a9d39282827a7ed44ef5",
              "reqSigs": 1,
              "type": "witness_v0_keyhash",
              "addresses": ["tb1q3a00snh7erczk94k48fe9q5z0fldgnh4twsh29"]
            }
          },
          {
            "value": 6.4447857,
            "n": 1,
            "scriptPubKey": {
              "asm": "0 9a5b76205399d510edab5ffc6fb74f68073c66dc",
              "hex": "00149a5b76205399d510edab5ffc6fb74f68073c66dc",
              "reqSigs": 1,
              "type": "witness_v0_keyhash",
              "addresses": ["tb1qnfdhvgznn823pmdttl7xld60dqrncekuyv9j9v"]
            }
          }
        ]
      }
    },
    "ddd3f3224cc5c92ac1ff74f53143b169f78c815942031879427c52449d2d76a1": {
      "raw_transaction": "010000000001016e34d7edce92eb50459d5ab12fb9f9a214e92b3a7383bf4d7b0a6e0ea7abbd070000000000ffffffff02e803000000000000160014c4ff9b64146aa85c68d159b33fac787d2ca739ce170000000000000016001411c0afb93b09754c404d6d07d0177e47e50a7af602483045022100c57237e14bbbb2c0d7a697293582b4a6a9513e9cb1bad8cd2982bc2712defef502207bdf2b7490d961ee996851ed9e14c5122f8bcf958ebcccb01e558182286eb2b601210229b42fa7f046c3f453ef30d49573a076ad357b3c72ec9b3139705bb7e54daa3600000000",
      "decoded_raw_transaction": {
        "txid": "ddd3f3224cc5c92ac1ff74f53143b169f78c815942031879427c52449d2d76a1",
        "hash": "e8b168088568cd632f2cc699fe26abfaf6587ad6d0bd7ae4fc01ae04a99e6d1c",
        "version": 1,
        "size": 223,
        "vsize": 141,
        "weight": 562,
        "locktime": 0,
        "vin": [
          {
            "txid": "07bdaba70e6e0a7b4dbf83733a2be914a2f9b92fb15a9d4550eb92ceedd7346e",
            "vout": 0,
            "scriptSig": { "asm": "", "hex": "" },
            "txinwitness": [
              "3045022100c57237e14bbbb2c0d7a697293582b4a6a9513e9cb1bad8cd2982bc2712defef502207bdf2b7490d961ee996851ed9e14c5122f8bcf958ebcccb01e558182286eb2b601",
              "0229b42fa7f046c3f453ef30d49573a076ad357b3c72ec9b3139705bb7e54daa36"
            ],
            "sequence": 4294967295
          }
        ],
        "vout": [
          {
            "value": 1.0e-5,
            "n": 0,
            "scriptPubKey": {
              "asm": "0 c4ff9b64146aa85c68d159b33fac787d2ca739ce",
              "hex": "0014c4ff9b64146aa85c68d159b33fac787d2ca739ce",
              "reqSigs": 1,
              "type": "witness_v0_keyhash",
              "addresses": ["tb1qcnlekeq5d259c6x3txenltrc05k2wwwwyfxphe"]
            }
          },
          {
            "value": 2.3e-7,
            "n": 1,
            "scriptPubKey": {
              "asm": "0 11c0afb93b09754c404d6d07d0177e47e50a7af6",
              "hex": "001411c0afb93b09754c404d6d07d0177e47e50a7af6",
              "reqSigs": 1,
              "type": "witness_v0_keyhash",
              "addresses": ["tb1qz8q2lwfmp965cszdd5raq9m7gljs57hkzpw56d"]
            }
          }
        ]
      }
    },
    "175af6b3e60550f86c794cb6f90262662b29ba75c0538c1110a3e5848a796102": {
      "raw_transaction": "0100000000010139d3e3e0cfeb8ca7ee2acde3da7b9c55b69b98d1ecefc462fc42a9a0e01791590100000000ffffffff02e80300000000000016001411c0afb93b09754c404d6d07d0177e47e50a7af68a85000000000000160014c4ff9b64146aa85c68d159b33fac787d2ca739ce0247304402200d05ce625798f0b5406c34d02bf3bd6c4a687e56bf53d045362540596f50d9990220540aaf887d8ccd7e81644e013465a5f047dec387b69892df6de48d720e574615012103086efaa7f1c864fb6a88581dcc641b61694e16ce668a46807a2fe8d5d40aed0700000000",
      "decoded_raw_transaction": {
        "txid": "175af6b3e60550f86c794cb6f90262662b29ba75c0538c1110a3e5848a796102",
        "hash": "ad9eb34141ab51d5deb3db7b7a858d71f56c63f846663777be1332bab057d344",
        "version": 1,
        "size": 222,
        "vsize": 141,
        "weight": 561,
        "locktime": 0,
        "vin": [
          {
            "txid": "599117e0a0a942fc62c4efecd1989bb6559c7bdae3cd2aeea78cebcfe0e3d339",
            "vout": 1,
            "scriptSig": { "asm": "", "hex": "" },
            "txinwitness": [
              "304402200d05ce625798f0b5406c34d02bf3bd6c4a687e56bf53d045362540596f50d9990220540aaf887d8ccd7e81644e013465a5f047dec387b69892df6de48d720e57461501",
              "03086efaa7f1c864fb6a88581dcc641b61694e16ce668a46807a2fe8d5d40aed07"
            ],
            "sequence": 4294967295
          }
        ],
        "vout": [
          {
            "value": 1.0e-5,
            "n": 0,
            "scriptPubKey": {
              "asm": "0 11c0afb93b09754c404d6d07d0177e47e50a7af6",
              "hex": "001411c0afb93b09754c404d6d07d0177e47e50a7af6",
              "reqSigs": 1,
              "type": "witness_v0_keyhash",
              "addresses": ["tb1qz8q2lwfmp965cszdd5raq9m7gljs57hkzpw56d"]
            }
          },
          {
            "value": 0.00034186,
            "n": 1,
            "scriptPubKey": {
              "asm": "0 c4ff9b64146aa85c68d159b33fac787d2ca739ce",
              "hex": "0014c4ff9b64146aa85c68d159b33fac787d2ca739ce",
              "reqSigs": 1,
              "type": "witness_v0_keyhash",
              "addresses": ["tb1qcnlekeq5d259c6x3txenltrc05k2wwwwyfxphe"]
            }
          }
        ]
      }
    },
    "3aa0cb3d3bdb628c68a0682954a73bff34f33aa5ea9d78828ddcbd4d47addb91": {
      "raw_transaction": "0200000000010f30f5e1eae8fe82e1fd102e95ad81ff597463d4df802cf2168cdc9ecb2481d5560000000000ffffffff6c9b2ab6f477d6776926cd667b722b78d5992a8d518d838553b8fa30639e28260000000000ffffffffc66c95d2eac466331766a1d318eb222d2275e4c64d6f092281d45811662b8cbc0000000000ffffffffd25810848ee77aa10ada860f70808dd4b6736b7497cc358da3342a364eb1f2d70000000000ffffffff20e38ba709766e10a83fdc971862707b3d42ae77593b33f6c786b04efaa80b830000000000ffffffff1d03294989f1d531aefe318bcd957703ac3aa87d5384939ad3cc7aa7855bc76a0000000000ffffffff9abf8fd2303fa4f2750c4a4772a30c2ff852ef6b83ea68443a518dd9240ee2830000000000ffffffff1a4915f3ac0e1e665601a17f4018df95fcf956d9dacb5a85c561feeec5a13c510000000000ffffffff9b07e43b169f1af9f8633c38e8c235f67bf4aaaf6ffc9a54a09fcb9ccd5c90b10000000000ffffffff25cf61632657225bc1f1c8d4d34b09ffa7b106870916512a9c79d0e07ead37c00000000000ffffffff1b61085edcdb712fe742ca459104d543fcbfe10258f92a4fb2dd4c329c2326990000000000ffffffff50fcb317b553595cb1b7f6081e957ed8068ba02f8768d3408592e14271cb0f370000000000ffffffffce79d2c8eae3a814924c89d00a2fd0e22effeadf438ea108fe12464dc8a5010b0000000000ffffffff16ef35fad9368f8d1bb2edd6eb385f25ab2e109a0101cf45cd280c14bc9f892b0000000000ffffffff32156d1ef5a7f8e4e044507471edac27e389c72ebae81ff00e5bfc5be3b6ba810000000000ffffffff03af08000000000000160014c4ff9b64146aa85c68d159b33fac787d2ca739ce6b7500000000000016001411c0afb93b09754c404d6d07d0177e47e50a7af60000000000000000106a0e535741503a54484f522e52554e450247304402203bcba4c95d943534d1dcf207bf2144149412e94c7e82880a9983b2c78eea551e02202f4fba97f8141f9ef5bef56caf39933b2c1ff3e04c50024a07cb320f8616595101210229b42fa7f046c3f453ef30d49573a076ad357b3c72ec9b3139705bb7e54daa3602483045022100d2af75e43e5e1a87bc8c70e8084e0da57be47aa7a1777eb9a098dd65ee5bf2a00220181e162982628bd8fe401ed6eff47c96ba71987896b4f9e60c616b40e7d8267c01210229b42fa7f046c3f453ef30d49573a076ad357b3c72ec9b3139705bb7e54daa3602473044022022ce762be7e8125be12bbd5b3f636d528deecae8f8fbde0fe0ca2c03d150ce39022076aec0d4c263a1ebe0438e4ff6e8faffb5fcd73546443f180334c485da04722f01210229b42fa7f046c3f453ef30d49573a076ad357b3c72ec9b3139705bb7e54daa360247304402201cd2bf3c1c7bb26e8a50b9d317ab47f169d978bbf4fc52161a6917ad2455bbe2022039664444aa732054a604a79dc9bf2915528d6eb84814f7a93dd1396d85cbadf601210229b42fa7f046c3f453ef30d49573a076ad357b3c72ec9b3139705bb7e54daa36024730440220110c10277edb46954831c66bb347a2bf2684666fc430a1621557f4a806b6d7a502207673b20c08ae0c80be6f61e10ee073f37fcb8531cc46896c8ce78ef06f0c05a601210229b42fa7f046c3f453ef30d49573a076ad357b3c72ec9b3139705bb7e54daa3602483045022100cdfeeab48db8c27e915643c4279e6905932ad7eab0e233ab0513bee2da192cff02206b938d7b278f1c6f9037885de9f3e81755c920bf259e0d8bc020ef757145247301210229b42fa7f046c3f453ef30d49573a076ad357b3c72ec9b3139705bb7e54daa36024730440220647c19774efe6a8214d8480118ca56d0d75fd7f0c0796d9d8941a9953a8f9de7022053b467d66ef3350af95947e795267780cc8253c00e6768824fc5106f4ad5728101210229b42fa7f046c3f453ef30d49573a076ad357b3c72ec9b3139705bb7e54daa3602483045022100a72c9c6f4a76002d059794d484fd2e6c2cb78b97411f64226a28b14560108d70022029fff0011a2b752bff5fd0277fc3ec01a0b504e9004a33682a7d9e933c25308201210229b42fa7f046c3f453ef30d49573a076ad357b3c72ec9b3139705bb7e54daa3602483045022100f4346cb3bb5f405531a2dd84d4a4407b409bdc122718e64bf6ddd38f459401a6022033085b88be6cd166c9500d77bda156e38626121f7c9831ae13a0380f1150284701210229b42fa7f046c3f453ef30d49573a076ad357b3c72ec9b3139705bb7e54daa360247304402204ef1aa2ceb03d35351d65bbc313c9a19717a57b213dc7da73dcccebfc7d158580220104bde5f43d28dc844325f1a4cf8c50fc07cea112a04cc0609f7e350d2036b7301210229b42fa7f046c3f453ef30d49573a076ad357b3c72ec9b3139705bb7e54daa3602483045022100c9aa17baae3d380452f276d1ad829f15589e250a46b0a42e8fcbf1bb4e24c160022054565685ec53db660a068f9edcd7bd742379ec2e39b5865cd5161418d3a37d7a01210229b42fa7f046c3f453ef30d49573a076ad357b3c72ec9b3139705bb7e54daa3602483045022100cc83a4baa6cd79c8ea33bb5bc3707a5e81c1935230377289dde13feddf7647ef022040aad029a17d678d228f06a5eded6d8b622e0af9f567734967cd2f32cdf4721d01210229b42fa7f046c3f453ef30d49573a076ad357b3c72ec9b3139705bb7e54daa360247304402206203a2097dc5e9c5397d855685c51ade7d811b35e99cbde9ee85b61cf9aae48a02200a7b83143890073d751fa260cbe2f798c10e81bcaef009e7234151da872f297f01210229b42fa7f046c3f453ef30d49573a076ad357b3c72ec9b3139705bb7e54daa3602483045022100a24c4d944cd894d2a51da01e6a748fc0f947208ffe30888af800b4075e01e234022032697b950b08e19e313e105ffe874b9d99393dc869dd7f3ba5cf0d3ae869433801210229b42fa7f046c3f453ef30d49573a076ad357b3c72ec9b3139705bb7e54daa360247304402201f1c6c0d92153f252eae1f770bdd22ec59ea540eddd8caba795c895a7e926f0402200afba243c7f1b9d5e7a7cbd7328d772ed67fefba779d2031effeee0c19d0f0be01210229b42fa7f046c3f453ef30d49573a076ad357b3c72ec9b3139705bb7e54daa3600000000",
      "decoded_raw_transaction": {
        "txid": "3aa0cb3d3bdb628c68a0682954a73bff34f33aa5ea9d78828ddcbd4d47addb91",
        "hash": "a869aadec6ee2c4bbb795b0db7c51d309d6167c981558f349663798083d4c590",
        "version": 2,
        "size": 2326,
        "vsize": 1116,
        "weight": 4462,
        "locktime": 0,
        "vin": [
          {
            "txid": "56d58124cb9edc8c16f22c80dfd4637459ff81ad952e10fde182fee8eae1f530",
            "vout": 0,
            "scriptSig": { "asm": "", "hex": "" },
            "txinwitness": [
              "304402203bcba4c95d943534d1dcf207bf2144149412e94c7e82880a9983b2c78eea551e02202f4fba97f8141f9ef5bef56caf39933b2c1ff3e04c50024a07cb320f8616595101",
              "0229b42fa7f046c3f453ef30d49573a076ad357b3c72ec9b3139705bb7e54daa36"
            ],
            "sequence": 4294967295
          },
          {
            "txid": "26289e6330fab85385838d518d2a99d5782b727b66cd266977d677f4b62a9b6c",
            "vout": 0,
            "scriptSig": { "asm": "", "hex": "" },
            "txinwitness": [
              "3045022100d2af75e43e5e1a87bc8c70e8084e0da57be47aa7a1777eb9a098dd65ee5bf2a00220181e162982628bd8fe401ed6eff47c96ba71987896b4f9e60c616b40e7d8267c01",
              "0229b42fa7f046c3f453ef30d49573a076ad357b3c72ec9b3139705bb7e54daa36"
            ],
            "sequence": 4294967295
          },
          {
            "txid": "bc8c2b661158d48122096f4dc6e475222d22eb18d3a166173366c4ead2956cc6",
            "vout": 0,
            "scriptSig": { "asm": "", "hex": "" },
            "txinwitness": [
              "3044022022ce762be7e8125be12bbd5b3f636d528deecae8f8fbde0fe0ca2c03d150ce39022076aec0d4c263a1ebe0438e4ff6e8faffb5fcd73546443f180334c485da04722f01",
              "0229b42fa7f046c3f453ef30d49573a076ad357b3c72ec9b3139705bb7e54daa36"
            ],
            "sequence": 4294967295
          },
          {
            "txid": "d7f2b14e362a34a38d35cc97746b73b6d48d80700f86da0aa17ae78e841058d2",
            "vout": 0,
            "scriptSig": { "asm": "", "hex": "" },
            "txinwitness": [
              "304402201cd2bf3c1c7bb26e8a50b9d317ab47f169d978bbf4fc52161a6917ad2455bbe2022039664444aa732054a604a79dc9bf2915528d6eb84814f7a93dd1396d85cbadf601",
              "0229b42fa7f046c3f453ef30d49573a076ad357b3c72ec9b3139705bb7e54daa36"
            ],
            "sequence": 4294967295
          },
          {
            "txid": "830ba8fa4eb086c7f6333b5977ae423d7b70621897dc3fa8106e7609a78be320",
            "vout": 0,
            "scriptSig": { "asm": "", "hex": "" },
            "txinwitness": [
              "30440220110c10277edb46954831c66bb347a2bf2684666fc430a1621557f4a806b6d7a502207673b20c08ae0c80be6f61e10ee073f37fcb8531cc46896c8ce78ef06f0c05a601",
              "0229b42fa7f046c3f453ef30d49573a076ad357b3c72ec9b3139705bb7e54daa36"
            ],
            "sequence": 4294967295
          },
          {
            "txid": "6ac75b85a77accd39a9384537da83aac037795cd8b31feae31d5f1894929031d",
            "vout": 0,
            "scriptSig": { "asm": "", "hex": "" },
            "txinwitness": [
              "3045022100cdfeeab48db8c27e915643c4279e6905932ad7eab0e233ab0513bee2da192cff02206b938d7b278f1c6f9037885de9f3e81755c920bf259e0d8bc020ef757145247301",
              "0229b42fa7f046c3f453ef30d49573a076ad357b3c72ec9b3139705bb7e54daa36"
            ],
            "sequence": 4294967295
          },
          {
            "txid": "83e20e24d98d513a4468ea836bef52f82f0ca372474a0c75f2a43f30d28fbf9a",
            "vout": 0,
            "scriptSig": { "asm": "", "hex": "" },
            "txinwitness": [
              "30440220647c19774efe6a8214d8480118ca56d0d75fd7f0c0796d9d8941a9953a8f9de7022053b467d66ef3350af95947e795267780cc8253c00e6768824fc5106f4ad5728101",
              "0229b42fa7f046c3f453ef30d49573a076ad357b3c72ec9b3139705bb7e54daa36"
            ],
            "sequence": 4294967295
          },
          {
            "txid": "513ca1c5eefe61c5855acbdad956f9fc95df18407fa10156661e0eacf315491a",
            "vout": 0,
            "scriptSig": { "asm": "", "hex": "" },
            "txinwitness": [
              "3045022100a72c9c6f4a76002d059794d484fd2e6c2cb78b97411f64226a28b14560108d70022029fff0011a2b752bff5fd0277fc3ec01a0b504e9004a33682a7d9e933c25308201",
              "0229b42fa7f046c3f453ef30d49573a076ad357b3c72ec9b3139705bb7e54daa36"
            ],
            "sequence": 4294967295
          },
          {
            "txid": "b1905ccd9ccb9fa0549afc6fafaaf47bf635c2e8383c63f8f91a9f163be4079b",
            "vout": 0,
            "scriptSig": { "asm": "", "hex": "" },
            "txinwitness": [
              "3045022100f4346cb3bb5f405531a2dd84d4a4407b409bdc122718e64bf6ddd38f459401a6022033085b88be6cd166c9500d77bda156e38626121f7c9831ae13a0380f1150284701",
              "0229b42fa7f046c3f453ef30d49573a076ad357b3c72ec9b3139705bb7e54daa36"
            ],
            "sequence": 4294967295
          },
          {
            "txid": "c037ad7ee0d0799c2a5116098706b1a7ff094bd3d4c8f1c15b2257266361cf25",
            "vout": 0,
            "scriptSig": { "asm": "", "hex": "" },
            "txinwitness": [
              "304402204ef1aa2ceb03d35351d65bbc313c9a19717a57b213dc7da73dcccebfc7d158580220104bde5f43d28dc844325f1a4cf8c50fc07cea112a04cc0609f7e350d2036b7301",
              "0229b42fa7f046c3f453ef30d49573a076ad357b3c72ec9b3139705bb7e54daa36"
            ],
            "sequence": 4294967295
          },
          {
            "txid": "9926239c324cddb24f2af95802e1bffc43d5049145ca42e72f71dbdc5e08611b",
            "vout": 0,
            "scriptSig": { "asm": "", "hex": "" },
            "txinwitness": [
              "3045022100c9aa17baae3d380452f276d1ad829f15589e250a46b0a42e8fcbf1bb4e24c160022054565685ec53db660a068f9edcd7bd742379ec2e39b5865cd5161418d3a37d7a01",
              "0229b42fa7f046c3f453ef30d49573a076ad357b3c72ec9b3139705bb7e54daa36"
            ],
            "sequence": 4294967295
          },
          {
            "txid": "370fcb7142e1928540d368872fa08b06d87e951e08f6b7b15c5953b517b3fc50",
            "vout": 0,
            "scriptSig": { "asm": "", "hex": "" },
            "txinwitness": [
              "3045022100cc83a4baa6cd79c8ea33bb5bc3707a5e81c1935230377289dde13feddf7647ef022040aad029a17d678d228f06a5eded6d8b622e0af9f567734967cd2f32cdf4721d01",
              "0229b42fa7f046c3f453ef30d49573a076ad357b3c72ec9b3139705bb7e54daa36"
            ],
            "sequence": 4294967295
          },
          {
            "txid": "0b01a5c84d4612fe08a18e43dfeaff2ee2d02f0ad0894c9214a8e3eac8d279ce",
            "vout": 0,
            "scriptSig": { "asm": "", "hex": "" },
            "txinwitness": [
              "304402206203a2097dc5e9c5397d855685c51ade7d811b35e99cbde9ee85b61cf9aae48a02200a7b83143890073d751fa260cbe2f798c10e81bcaef009e7234151da872f297f01",
              "0229b42fa7f046c3f453ef30d49573a076ad357b3c72ec9b3139705bb7e54daa36"
            ],
            "sequence": 4294967295
          },
          {
            "txid": "2b899fbc140c28cd45cf01019a102eab255f38ebd6edb21b8d8f36d9fa35ef16",
            "vout": 0,
            "scriptSig": { "asm": "", "hex": "" },
            "txinwitness": [
              "3045022100a24c4d944cd894d2a51da01e6a748fc0f947208ffe30888af800b4075e01e234022032697b950b08e19e313e105ffe874b9d99393dc869dd7f3ba5cf0d3ae869433801",
              "0229b42fa7f046c3f453ef30d49573a076ad357b3c72ec9b3139705bb7e54daa36"
            ],
            "sequence": 4294967295
          },
          {
            "txid": "81bab6e35bfc5b0ef01fe8ba2ec789e327aced71745044e0e4f8a7f51e6d1532",
            "vout": 0,
            "scriptSig": { "asm": "", "hex": "" },
            "txinwitness": [
              "304402201f1c6c0d92153f252eae1f770bdd22ec59ea540eddd8caba795c895a7e926f0402200afba243c7f1b9d5e7a7cbd7328d772ed67fefba779d2031effeee0c19d0f0be01",
              "0229b42fa7f046c3f453ef30d49573a076ad357b3c72ec9b3139705bb7e54daa36"
            ],
            "sequence": 4294967295
          }
        ],
        "vout": [
          {
            "value": 2.223e-5,
            "n": 0,
            "scriptPubKey": {
              "asm": "0 c4ff9b64146aa85c68d159b33fac787d2ca739ce",
              "hex": "0014c4ff9b64146aa85c68d159b33fac787d2ca739ce",
              "reqSigs": 1,
              "type": "witness_v0_keyhash",
              "addresses": ["tb1qcnlekeq5d259c6x3txenltrc05k2wwwwyfxphe"]
            }
          },
          {
            "value": 0.00030059,
            "n": 1,
            "scriptPubKey": {
              "asm": "0 11c0afb93b09754c404d6d07d0177e47e50a7af6",
              "hex": "001411c0afb93b09754c404d6d07d0177e47e50a7af6",
              "reqSigs": 1,
              "type": "witness_v0_keyhash",
              "addresses": ["tb1qz8q2lwfmp965cszdd5raq9m7gljs57hkzpw56d"]
            }
          },
          {
            "value": 0,
            "n": 2,
            "scriptPubKey": {
              "asm": "OP_RETURN 535741503a54484f522e52554e45",
              "hex": "6a0e535741503a54484f522e52554e45",
              "type": "nulldata"
            }
          }
        ]
      }
    }
  },
  "bitcoinStats": {
    "blocks": 1890107,
    "transactions": 58243344,
    "outputs": 154657932,
    "circulation": 2095846125448576,
    "blocks_24h": 763,
    "transactions_24h": 4910,
    "difficulty": 5681909.0195754,
    "volume_24h": 29945159209133,
    "mempool_transactions": 23,
    "mempool_size": 10918,
    "mempool_tps": 0.016666666666666666,
    "mempool_total_fee_usd": 0,
    "best_block_height": 1890106,
    "best_block_hash": "000000000000007005962d7fefa729ebe3e29dcfb6c7877bbb0bc16447aa8fb2",
    "best_block_time": "2020-11-08 11:42:45",
    "blockchain_size": 25666074111,
    "average_transaction_fee_24h": 11990,
    "inflation_24h": 13857421875,
    "median_transaction_fee_24h": 725,
    "cdd_24h": 14264.65874191975,
    "largest_transaction_24h": {
      "hash": "8eeeb8153beb6239064d2e86fe7d8be0b40f58ecfa1d08c9c7f3ddc6aba150ba",
      "value_usd": 0
    },
    "hashrate_24h": "215961179945558",
    "inflation_usd_24h": 0,
    "average_transaction_fee_usd_24h": 0,
    "median_transaction_fee_usd_24h": 0,
    "market_price_usd": 0,
    "market_price_btc": 0,
    "market_price_usd_change_24h_percentage": 0,
    "market_cap_usd": 0,
    "market_dominance_percentage": 0,
    "next_retarget_time_estimate": "2020-11-09 14:04:48",
    "next_difficulty_estimate": 1893969,
    "suggested_transaction_fee_per_byte_sat": 1
  },
  "dashboardTransactions": {
    "5d13e94178c07d5e824968922766222a70253f9b8fa49e2c1ec63e105663cd54": {
      "transaction": {
        "block_id": 1865421,
        "id": 58150313,
        "hash": "5d13e94178c07d5e824968922766222a70253f9b8fa49e2c1ec63e105663cd54",
        "date": "2020-10-29",
        "time": "2020-10-29 06:55:52",
        "size": 222,
        "weight": 561,
        "version": 2,
        "lock_time": 1865420,
        "is_coinbase": false,
        "has_witness": true,
        "input_count": 1,
        "output_count": 2,
        "input_total": 644480711,
        "input_total_usd": 0,
        "output_total": 644480570,
        "output_total_usd": 0,
        "fee": 141,
        "fee_usd": 0,
        "fee_per_kb": 635.13513,
        "fee_per_kb_usd": 0,
        "fee_per_kwu": 251.3369,
        "fee_per_kwu_usd": 0,
        "cdd_total": 0.091674397432755,
        "is_rbf": false
      },
      "inputs": [
        {
          "block_id": 1865419,
          "transaction_id": 58150187,
          "index": 0,
          "transaction_hash": "332b32cccd234a3f85b6478d111273c0fc5aa3c357e228050d35ddec03394fd8",
          "date": "2020-10-29",
          "time": "2020-10-29 06:35:23",
          "value": 644480711,
          "value_usd": 0,
          "recipient": "tb1qrazjf0qwjehrxdtlrtkt7mywt9j0deq8pq7c0h",
          "type": "witness_v0_keyhash",
          "script_hex": "00141f4524bc0e966e33357f1aecbf6c8e5964f6e407",
          "is_from_coinbase": false,
          "is_spendable": null,
          "is_spent": true,
          "spending_block_id": 1865421,
          "spending_transaction_id": 58150313,
          "spending_index": 0,
          "spending_transaction_hash": "5d13e94178c07d5e824968922766222a70253f9b8fa49e2c1ec63e105663cd54",
          "spending_date": "2020-10-29",
          "spending_time": "2020-10-29 06:55:52",
          "spending_value_usd": 0,
          "spending_sequence": 4294967294,
          "spending_signature_hex": "",
          "spending_witness": "3044022034dd07ef6e3eea1497fa84fce0bdd74e9354cb39a30331d10ed5d4b848d4d5a602207f2594a82058f1c5774c7b9b3e46c256fe2a673a60861d5150e39a86fa59527901,03a7063e9051f0374739dd2228cf7f903949e9109e4dfa97c1630ebba8c00d280e",
          "lifespan": 1229,
          "cdd": 0.08534722222222223
        }
      ],
      "outputs": [
        {
          "block_id": 1865421,
          "transaction_id": 58150313,
          "index": 0,
          "transaction_hash": "5d13e94178c07d5e824968922766222a70253f9b8fa49e2c1ec63e105663cd54",
          "date": "2020-10-29",
          "time": "2020-10-29 06:55:52",
          "value": 2000,
          "value_usd": 0,
          "recipient": "tb1q3a00snh7erczk94k48fe9q5z0fldgnh4twsh29",
          "type": "witness_v0_keyhash",
          "script_hex": "00148f5ef84efec8f02b16b6a9d39282827a7ed44ef5",
          "is_from_coinbase": false,
          "is_spendable": null,
          "is_spent": false,
          "spending_block_id": null,
          "spending_transaction_id": null,
          "spending_index": null,
          "spending_transaction_hash": null,
          "spending_date": null,
          "spending_time": null,
          "spending_value_usd": null,
          "spending_sequence": null,
          "spending_signature_hex": null,
          "spending_witness": null,
          "lifespan": null,
          "cdd": null
        },
        {
          "block_id": 1865421,
          "transaction_id": 58150313,
          "index": 1,
          "transaction_hash": "5d13e94178c07d5e824968922766222a70253f9b8fa49e2c1ec63e105663cd54",
          "date": "2020-10-29",
          "time": "2020-10-29 06:55:52",
          "value": 644478570,
          "value_usd": 0,
          "recipient": "tb1qnfdhvgznn823pmdttl7xld60dqrncekuyv9j9v",
          "type": "witness_v0_keyhash",
          "script_hex": "00149a5b76205399d510edab5ffc6fb74f68073c66dc",
          "is_from_coinbase": false,
          "is_spendable": null,
          "is_spent": true,
          "spending_block_id": 1865421,
          "spending_transaction_id": 58150314,
          "spending_index": 0,
          "spending_transaction_hash": "665a52539980deee41a31f3d3897ce96998d498c55ecd32c562b3ba564742c4b",
          "spending_date": "2020-10-29",
          "spending_time": "2020-10-29 06:55:52",
          "spending_value_usd": 0,
          "spending_sequence": 4294967294,
          "spending_signature_hex": "",
          "spending_witness": "304402201e4961ed60ee5baacfadc6e140325becd27b8b958a3a4e71af162fc1c59266f2022019532e456f171c58ff8ab39d99ce64c7d19994652221520e5d55f9e2cd60a11e01,0246428e1631559fd85d46c359db73e6ade581640d797aba2041d7a75a5efb68b9",
          "lifespan": 0,
          "cdd": 0
        }
      ]
    },
    "b660ee07167cfa32681e2623f3a29dc64a089cabd9a3a07dd17f9028ac956eb8": {
      "transaction": {
        "block_id": 1865421,
        "id": 58150519,
        "hash": "b660ee07167cfa32681e2623f3a29dc64a089cabd9a3a07dd17f9028ac956eb8",
        "date": "2020-10-29",
        "time": "2020-10-29 06:55:52",
        "size": 245,
        "weight": 653,
        "version": 2,
        "lock_time": 1865420,
        "is_coinbase": false,
        "has_witness": true,
        "input_count": 1,
        "output_count": 2,
        "input_total": 8898697,
        "input_total_usd": 0,
        "output_total": 8898533,
        "output_total_usd": 0,
        "fee": 164,
        "fee_usd": 0,
        "fee_per_kb": 669.38776,
        "fee_per_kb_usd": 0,
        "fee_per_kwu": 251.14854,
        "fee_per_kwu_usd": 0,
        "cdd_total": 0.0012657984505787,
        "is_rbf": false
      },
      "inputs": [
        {
          "block_id": 1865419,
          "transaction_id": 58150085,
          "index": 1,
          "transaction_hash": "f897258c2f866a2a14af4d0be356e7747b4ef1b15a52d219e09e4476d2ee8542",
          "date": "2020-10-29",
          "time": "2020-10-29 06:35:23",
          "value": 8898697,
          "value_usd": 0,
          "recipient": "2N4nhhJpjauDekVUVgA1T51M5gVg4vzLzNC",
          "type": "scripthash",
          "script_hex": "a9147e9d68474034fd4393c76d87923db6ad79f1b94e87",
          "is_from_coinbase": false,
          "is_spendable": null,
          "is_spent": true,
          "spending_block_id": 1865421,
          "spending_transaction_id": 58150519,
          "spending_index": 0,
          "spending_transaction_hash": "b660ee07167cfa32681e2623f3a29dc64a089cabd9a3a07dd17f9028ac956eb8",
          "spending_date": "2020-10-29",
          "spending_time": "2020-10-29 06:55:52",
          "spending_value_usd": 0,
          "spending_sequence": 4294967294,
          "spending_signature_hex": "16001476fb4ad4c94bc217dc39d2bbd315412f1a4b098a",
          "spending_witness": "304402203df07aa9b9cd423ee04e99d6c92587056841a4d99a92171497ddb80154aae8a302201f67daa79aacb95eafb6b886967e4529feae25b3eb0b9cb268f76c396e535a5a01,02f0937b6d2ec8f76768906695f6605d9d590139bfcf9eb900f3583cd6aad991b4",
          "lifespan": 1229,
          "cdd": 0
        }
      ],
      "outputs": [
        {
          "block_id": 1865421,
          "transaction_id": 58150519,
          "index": 0,
          "transaction_hash": "b660ee07167cfa32681e2623f3a29dc64a089cabd9a3a07dd17f9028ac956eb8",
          "date": "2020-10-29",
          "time": "2020-10-29 06:55:52",
          "value": 100000,
          "value_usd": 0,
          "recipient": "tb1q3a00snh7erczk94k48fe9q5z0fldgnh4twsh29",
          "type": "witness_v0_keyhash",
          "script_hex": "00148f5ef84efec8f02b16b6a9d39282827a7ed44ef5",
          "is_from_coinbase": false,
          "is_spendable": null,
          "is_spent": false,
          "spending_block_id": null,
          "spending_transaction_id": null,
          "spending_index": null,
          "spending_transaction_hash": null,
          "spending_date": null,
          "spending_time": null,
          "spending_value_usd": null,
          "spending_sequence": null,
          "spending_signature_hex": null,
          "spending_witness": null,
          "lifespan": null,
          "cdd": null
        },
        {
          "block_id": 1865421,
          "transaction_id": 58150519,
          "index": 1,
          "transaction_hash": "b660ee07167cfa32681e2623f3a29dc64a089cabd9a3a07dd17f9028ac956eb8",
          "date": "2020-10-29",
          "time": "2020-10-29 06:55:52",
          "value": 8798533,
          "value_usd": 0,
          "recipient": "tb1qxx4azx0lw4tc6ylurc55ak5hl7u2ws0w9kw9h3",
          "type": "witness_v0_keyhash",
          "script_hex": "001431abd119ff75578d13fc1e294eda97ffb8a741ee",
          "is_from_coinbase": false,
          "is_spendable": null,
          "is_spent": true,
          "spending_block_id": 1865424,
          "spending_transaction_id": 58150812,
          "spending_index": 0,
          "spending_transaction_hash": "c1e33d6635c112184874761f9e45d390a7175987b747a4ea01843b7a33ab74ea",
          "spending_date": "2020-10-29",
          "spending_time": "2020-10-29 07:11:57",
          "spending_value_usd": 0,
          "spending_sequence": 4294967294,
          "spending_signature_hex": "",
          "spending_witness": "304402205dd9c1231d17f68d8b2813252a36248879bbd1401a36a849a24b7792c0addbef022006bc1e17d3322491d397ffee03b5fd6d6489b7905634d6206d3ce66c09ba58b301,03c6a1eb7143555208133bb944dcd7014a4f310a869f0428c55ab887019887e258",
          "lifespan": 965,
          "cdd": 0
        }
      ]
    }
  }
}
